:020000040800F2
:10000000A01100204102000873500008E1490008D7
:1000100071500008DB160008855C00080000000035
:10002000000000000000000000000000C9520008AD
:10003000F718000800000000F15100089D54000866
:100040005B0200085B0200085B0200085B0200081C
:100050005B0200085B0200085B0200085B0200080C
:100060005B0200085B0200085B02000895180008AC
:10007000A11800085B0200085B0200085B02000890
:100080005B0200085B0200085B0200085B020008DC
:10009000DD1600085B0200085B0200085B02000836
:1000A0005B0200085B0200085B0200085B020008BC
:1000B0005B0200085B020008000000005B02000811
:1000C0005B02000800000000000000005B02000866
:1000D000000000005B0200085B0200085B020008F1
:1000E0005B0200085B020008000000000000000046
:1000F0000000000000000000000000000000000000
:1001000000000000000000000000000000000000EF
:100110000000000000000000395500085B020008E4
:1001200000000000000000000000000000000000CF
:1001300000000000000000000000000000000000BF
:100140005B0200085B020008000000005B02000880
:100150005B0200085B0200085B0200085B0200080B
:100160005B0200085B0200080000000000000000C5
:10017000000000000000000000000000000000007F
:10018000000000005B02000800F002F800F049F8EF
:100190000AA090E8000C82448344AAF10107DA45E2
:1001A00001D100F03EF8AFF2090EBAE80F0013F0EB
:1001B000010F18BFFB1A43F0010318472464000025
:1001C00044640000103A24BF78C878C1FAD85207B6
:1001D00024BF30C830C144BF04680C6070470000C1
:1001E0000023002400250026103A28BF78C1FBD840
:1001F000520728BF30C148BF0B607047662906F020
:100200008B80002070471FB506F081F800F0E6FBF8
:1002100004000020002105F0B7FFE0601FBD10B50D
:1002200010BD00F0D7FC1146FFF7EDFF05F0F6FE1C
:1002300000F0F5FC03B4FFF7F2FF03BC00F038FD5B
:100240000948804709480047FEE7FEE7FEE7FEE76A
:10025000FEE7FEE7FEE7FEE7FEE7FEE704480549A6
:10026000054A064B7047000029550008890100081F
:10027000A00B0020A0110020A00D0020A00D002048
:1002800053EA020C00F069802DE9F04B4FF00006B4
:10029000002B1FBFB3FA83F503FA05F424FA05F621
:1002A0005E4012BF1643B2FA82F502FA05F4C5F1B8
:1002B00020051EBF22FA05FC44EA0C04203556EA4C
:1002C000044C4FEA144418BF641C4FF000084FF070
:1002D0000009904271EB030C39D3002919BFB1FA20
:1002E00081F701FA07F6B0FA80F700FA07F6C7F1CE
:1002F00020071EBF20FA07FC46EA0C062037B6FB93
:10030000F4FCA7EB0507103F07F01F0BCBF120060D
:100310000CFA0BFB2CFA06F644BFB3460026202F3E
:10032000A4BF5E464FF0000B5BEA060C08BF4FF01F
:10033000010B19EB0B09ABFB027C48EB0608C01B59
:1003400006FB02CC0BFB03CC71EB0C01C1E70B46A7
:10035000024641464846BDE8F08B13B54FF0000019
:100360004FF00001AFF30080BDE81C407047000073
:100370000FB41CB5074B06AA7B446946009005984C
:1003800000F013FB0020694600F022FB1CBC5DF866
:1003900014FB00005506000070B50446856900682E
:1003A000C10601D5302600E02026C00707D070BD69
:1003B000D4E9012130469047206A401C20626D1E1E
:1003C000F6D570BD70B5044685690078C00707D1C1
:1003D00070BDD4E9012120209047206A401C206292
:1003E0006D1EF6D570BD2DE9F0474FF0000A894625
:1003F0000446C0F820A02046E1688847002876D04F
:10040000252806D0D4E901219047206A401C2062AB
:10041000F1E7E168204600258847C4F81CA006469D
:100420000027C4F818A02A2E09D0304605F0CAFCCF
:1004300038B304EB8708303EC8F8186019E059F863
:10044000041B204604EB87029161E1688847012F75
:10045000064618D1E069002820DA25F020051DE0C5
:10046000D8F8180000EB800006EB40003038C8F8E0
:1004700018002046E1688847064605F0A3FC0028DE
:10048000EED1012F0AD02E2E08D12046E1688847F0
:100490007F1C0646022F45F02005C4DBA06900281A
:1004A00003DA404245F00105A061E80701D025F0DC
:1004B0001005B6B1A6F14100192802D8203645F43E
:1004C00000654A463146204625604D46FFF796FEB8
:1004D00058B1012806D0ED1D25F0070000F10809EC
:1004E00089E704E005F1040985E730468AE7206AD8
:1004F000BDE8F08710B5431C02E010F8011B71B194
:100500008107FAD14FF0013202C88C1A8C4314EAE9
:10051000C211F9D0C01A0A0603D0C01E10BDC01AFD
:1005200010BD0A0401D0801E10BD0902FCD0401E7F
:1005300010BD4FF0000200B5134694469646203990
:1005400022BFA0E80C50A0E80C50B1F12001BFF48C
:10055000F7AF090728BFA0E80C5048BF0CC05DF8F2
:1005600004EB890028BF40F8042B08BF704748BF40
:1005700020F8022B11F0804F18BF00F8012B7047B4
:1005800070477047704770472DE9FF4F0C461E4675
:100590004FF0FF378BB0D2E90001DDF860800A90A0
:1005A0008A46C1F30A5505B93D46002108464FF079
:1005B0000000BAF1000F00F4400005DA00EB800003
:1005C0004FF4400101EA50004FEA9059B9F1010F90
:1005D00000DDB9460A9850EA4A000ED044F61050A1
:1005E000A5F2FF3545432F14B8F1000F1ED0754218
:1005F000291E1EDDC9F100021CE0B8F1010F4FF009
:10060000000001D0302103E0F24305E02154401CFA
:10061000B042FBDB30460022002121540B99C1F887
:100620000880C1E900200FB0BDE8F08FBD1B6D1C34
:10063000DEE74A4600DA694206A800F059FA06AB3E
:1006400093E8070003AB83E8070050460A9900F0DF
:1006500036FB8DE80700A0F500501F380090039886
:10066000002D09DD42F21F014A46084403A9039008
:10067000684600F095FD08E0A0F500504A461F3896
:1006800003A90390684600F09FFD8DE80700000471
:10069000000C03D04FF0FF30410800E01046B8F1E5
:1006A000000F03D00022009215461EE0751E05D4EF
:1006B00000F098F9303262556D1EF9D5B34601222B
:1006C000084302D000227F1C04E02078302801D1AA
:1006D00000227F1E002A099786D01DE0112D07DA1F
:1006E00000F080F9303262556D1C50EA0102F5D1FC
:1006F000084302D00098C8B10EE00021681E05E052
:10070000235C625C63542254401E491C8142F7DB27
:10071000AB46A81B401E0990002004F80B000B9864
:10072000099AC0F80880C0E9002B7CE711264FF039
:10073000000859E72DE9F04F88460446D21D22F003
:10074000070191B0D1E90001CDE90A0105F0CAFA2B
:1007500002460B98C00F01D02D2007E020688107CA
:1007600001D52B2002E0202101EAC000032A0990D4
:1007700001D0072A05DB03464146204600F078F900
:100780000BE12078800601D5E06900E00620B8F191
:10079000650F814606D0B8F1660F18D0B8F1670F23
:1007A00070D131E00020B9F1110F009001DB11236D
:1007B00001E009F101030AAA01A90CA8FFF7E4FE70
:1007C000DDE90C70002609F10105834647E00120B0
:1007D0004B4600904FF000470AAA01A90CA8FFF76A
:1007E000D3FEDDE90DB00C995D46002610B909F184
:1007F00001000D18B9EB050003D4C0F1FF3609F173
:100800000105A5EB09002BE0B9F1010F01DA4FF06A
:1008100001090020B9F1110F0090484601DD1123B4
:1008200000E003460AAA01A90CA8FFF7ADFEDDE926
:100830000C704D4600268346207800070AD4AB454D
:1008400000DA5D4601A8012D04DD411911F8011CF3
:10085000302907D04F4502DA17F1040F04DA0120DE
:1008600082460FE06D1EEEE7002F02DCED1B3E44DA
:1008700003E0781CA84200DD7D1CB81B00F1010AD2
:100880004FF000472078000703D4AA4501DB4FF062
:10089000FF3A0021B7F1004F0DF143088DF84310E6
:1008A00024D002202B23002F01DA7F422D230A219E
:1008B000021EA0F1010000DC5FB197FBF1FC97FB89
:1008C000F1F201FB1C7C17460CF1300C08F801CD4D
:1008D000EEE7A8F1010003702188090501D5452143
:1008E00000E06521A0F1010800F8011C09980FA99A
:1008F000A1EB0807FF1D00B10120411901EBEA70CF
:10090000A1693844081A401EA0612078C00602D4AC
:100910002046FFF741FD099828B1D4E9012190470D
:10092000206A401C20622078C00622D52046FFF7AE
:1009300033FD1EE0002E04DBB34502DD01A8805D1F
:1009400000E03020D4E901219047206A401C206259
:10095000761CAAF101005FEA000A0AD100F03EF815
:10096000C0680168405CD4E901219047206A401CBE
:100970002062281EA5F10105DCDC07E0D4E9012195
:1009800018F8010B9047206A401C2062381EA7F11E
:100990000107F3DC2046FFF715FD032011B043E605
:1009A00001694A1C02610878704700B58FB0CDE933
:1009B00001310021059105497944CDE90310114623
:1009C0006846FFF710FD0FB000BD0000E5FFFFFF18
:1009D0000A6802F8010B0A6070470000004870477F
:1009E000600B002030B5B0F10A024FEA900E71F1B1
:1009F00000034EEA817EB0EB0E0061EB91014FEAFD
:100A0000101E4EEA017E10EB0E0041EB11114FEA71
:100A1000102E4EEA016E10EB0E0041EB11214FEA51
:100A2000104E4EEA014E10EB0E0041EB1141401802
:100A300041F100014FEAD00040EA41704FEAD10194
:100A400010EB80054FEA810444EA907444EB010402
:100A50006D1944EB0404521BA3414FF0000348BF3F
:100A60000A3200D530BD401C41F1000130BD00000C
:100A70002DE9F0411F46044603260168072A01F4C8
:100A8000006004DB08B116A505E016A503E008B177
:100A900015A500E015A521F010002060A069C01E7A
:100AA000A0610FB1401EA0612046FFF775FC4FB159
:100AB000D4E9012138469047206A401C2062C01CBE
:100AC000206206E0206AFAE7D4E9012115F8010B5B
:100AD0009047761EF8D22046FFF774FCBDE8F081FF
:100AE0004E414E006E616E00494E4600696E6600D2
:100AF0002DE9F047814616468AB0334878440DC840
:100B00008DE80D0030487844801C03AC0DC884E8A3
:100B10000D0041F69B300844372190FBF1F290FB29
:100B2000F1F5A5F1800501FB12041B3C02D56442DE
:100B3000012000E00020DFF890A080460027FA4462
:100B4000AAF1BE0A0DE0E00709D03246684607EB7D
:100B500047010AEB810100F037FB8DE807006410C4
:100B60007F1C002CEFD1184F7F44AC3F18E0E80702
:100B700014D007EB04100DF1180A90E80E008AE873
:100B80000E00C068F04201D198190890324606A9BB
:100B900003A800F019FB03AB83E807006D10641C89
:100BA000002DE4D132466946B8F1000F03A802D007
:100BB00000F0F6FA01E000F007FBC9E90001C9F80E
:100BC00008200AB0BDE8F087605A0000004870476E
:100BD000400B00207546FFF7F9FFAE460500694659
:100BE000534620F00700854618B020B5FFF736FBC6
:100BF000BDE820404FF000064FF000074FF000081E
:100C00004FF0000B21F00701AC46ACE8C009ACE89E
:100C1000C009ACE8C009ACE8C0098D46704710B502
:100C20000446AFF300802046BDE81040FFF702BB4A
:100C30004FF0013C50F8042B51F8043B9A4221D16B
:100C4000A2EB0C03934313EACC1317D150F8042BF7
:100C500051F8043B9A4215D1A2EB0C03934313EADB
:100C6000CC130BD150F8042B51F8043B9A4209D114
:100C7000A2EB0C03934313EACC13DBD04FF000003C
:100C8000704700BFD01A01BAB1FA81F101F0180122
:100C900022FA01F0CB40C1F12001DBB2C0B2C01A90
:100CA0002CFA01F3D11A914311EAC311E6D170472E
:100CB00001491820ABBEFEE72600020070475FEA3C
:100CC000400C08BF91F0000F4FEA8C234FEAC1227D
:100CD00043EA51514FEA1C5018BF00F5F0404FEA6B
:100CE000300018BF41F000415FEA6C5C00F02980E1
:100CF000BCF1FF3F08BF40F080407047130C06BFB7
:100D000012044FF0100C4FF0000C130E04BF12022F
:100D10000CF1080C130F04BF12010CF1040C930F1B
:100D200004BF92000CF1020CD30F04BF52000CF16F
:100D3000010C11464FF00002A0F11F00A0EB0C00C7
:100D4000704711F0004F08BF704731F000413FF489
:100D5000D5AF0B0C06BF09044FF0100C4FF0000C80
:100D60000B0E04BF09020CF1080C0B0F04BF0901A4
:100D70000CF1040C8B0F04BF89000CF1020CCB0F9B
:100D800004BF49000CF1010CCCF12003A0EB0C00D6
:100D900022FA03F302FA0CF241EA030100F1010026
:100DA000704720F07F4C80EA030023F07F47ACEBD4
:100DB000070303F57C5300F0004003F1FF032DE926
:100DC00080494FEA154B09B44FEA144325EA0B4E0C
:100DD00024EA03480FF2042606EB132749083E785D
:100DE0005FEA320203FB0667C7F5000707FB06F65A
:100DF0004FEA54374FEAD64606F1020607FB066C67
:100E0000CCF1005C4FEA1C472CEA074C07FB06F4C8
:100E10000CFB06F504EB15464FEA961634BF00208E
:100E20004FF000404FEAD13706FB07FC4FEA1C4C5D
:100E30000CFB0BF7D21B03FB0CF761EB07010CFB60
:100E40000EF7B0EB074072EB17420CFB08F734BF0C
:100E5000A2EB0742B2EB074261EB17414FEA0C44A9
:100E60004FEA910706FB07FC4FEA1C4C0CFB0BF703
:100E7000B0EBC74072EB573203FB0CF734BFA2EB69
:100E8000C742B2EBC74261EB57310CFB0EF7B0EB38
:100E9000C70072EB57720CFB08F734BFA2EBC70216
:100EA000B2EBC70261EB5771039F4FEA816141EAE0
:100EB000921104EBCC044FEAD1374FEA826206FB71
:100EC00007FC42EA90124FEA80604FEA1C4C0CFB90
:100ED0000BF7D21B03FB0CF761EB07010CFB0EF7C2
:100EE000B0EB074072EB17420CFB08F734BFA2EBE4
:100EF0000742B2EB074261EB17414FEA8C554FEACC
:100F0000910704EB9C2406FB07FC4FEA1C4C0CFBEE
:100F10000BF7B0EBC74072EB573203FB0CF734BF53
:100F2000A2EBC742B2EBC74261EB57310CFB0EF7A5
:100F3000B0EBC70072EB57720CFB08F734BFA2EBA3
:100F4000C702B2EBC70261EB577115EB4C254FEAB4
:100F5000816141EA92114FEA82624FEAD13742EA57
:100F6000901206FB07FC44F100044FEA80604FEA50
:100F70001C4C0CFB0BF7D21B03FB0CF761EB0701BE
:100F80000CFB0EF7B0EB074072EB17420CFB08F7B7
:100F900034BFA2EB0742B2EB074261EB174115EBFE
:100FA0001C154FEA813141EA92414FEA823242EA0E
:100FB00090424FEA80304FEA0C7644F1000448EA50
:100FC00003434EEA0B484FF0000EB2EB080C71EBF6
:100FD000030724BF624639464EEB0E0E4FF0000B5E
:100FE0000018524149414BEB0B0BB2EB080C71EB73
:100FF00003077BF1000B24BF624639464EEB0E0E11
:101000004FF0000B0018524149414BEB0B0BB2EB78
:10101000080C71EB03077BF1000B24BF62463946D5
:101020004EEB0E0E51EA020718BF46F0010616EB12
:101030000E7655F1000254F1000103D5BDE8890197
:10104000BDE80088BDE88901BDE80048B6195241F5
:1010500041EB0101A3F10103704780807F7E7D7C1D
:101060007B7A7978777676757473727171706F6E3A
:101070006E6D6C6C6B6A6A696868676666656464E5
:10108000636362616160605F5F5E5E5D5D5C5C5B6F
:101090005B5A5A59595858575756565555555454DE
:1010A000535352525251515050504F4F4F4E4E4D3C
:1010B0004D4D4C4C4C4B4B4B4A4A4A494949484888
:1010C00048474747474646464545454444444443C8
:1010D00043434342424242414141002B26D47700E0
:1010E00021D01CB54FEA370703B44FF010004FF082
:1010F00010014FF000000FBCBDE810400BF1010BD8
:10110000BBF1010F08BF5FEA170722BF12F101020E
:1011100011F101014FF0004143F1000300F00040E4
:1011200043EA00007047F9D35708DAE746EA064673
:1011300013F1400F4FEA16461FDD13F1200FDFBFFA
:1011400016430A46002120335B42C8D0C3F1200772
:1011500046EA064602FA07F74FEA164646EA070647
:10116000C3F1200722FA03F201FA07F721FA03F18B
:101170004FF0000342EA0702B1E746EA020646EAF8
:1011800006464FEA164646EA0106BCBF46EA064650
:10119000360C4FF000034FF000024FF000019EE7C5
:1011A0002DE9C048934630B491E8380007C831EAC9
:1011B000400C48BF34EA430C03D5FFF7F2FDFFF7BC
:1011C0008CFFF0BCBDE800882DE9C048934630B4E0
:1011D00091E8380007C810F0804F08BF13F0804F27
:1011E00003D100F005F8FFF778FFF0BCBDE80088F8
:1011F00020F07F4780EA030023F07F4C07EB0C03CD
:10120000A3F57C5300F00040A3F1FE0392F0000F21
:1012100000F0B38095F0000F00F077802DE90149D0
:101220004FEA11404FEA144621EA004800FB06FC51
:1012300024EA064708FB06F607FB08F800FB07F759
:1012400018EB06484CEB164C4FEA124B18EB0748CC
:101250004FEA15464CEB174022EA0B4E0BFB06FCFF
:1012600025EA06470EFB06F607FB0EFE0BFB07F70B
:101270001EEB064E4CEB164C4FF000061EEB074ED5
:101280004CEB174B18EB0B0840F1000018EB0E0B62
:1012900058EB000840F100008F1A4FF000013CBFEE
:1012A000C943661B14BFB5EB040C00213CBFC94306
:1012B000F61B4FEA17444EEA8E0E27EA04454FEA22
:1012C0001C4704FB07622CEA074C05FB07F70CFBE5
:1012D00005F604FB0CFC16EB074642EB174216EB37
:1012E0000C4642EB1C421BEB060658EB0202414146
:1012F00046EA9E0601D5BDE80189B619524141EB87
:101300000101A3F10103BDE801894FEA14454FEA49
:10131000114724EA054621EA074C05FB07F406FBC2
:1013200007F70CFB06F105FB0CFC11EB074144EB46
:1013300017444FEA124711EB0C4144EB1C4422EADC
:10134000074C05FB07F206FB07F70CFB06F605FB4F
:101350000CFC16EB074642EB174216EB0C4642EB31
:101360001C456A1854F1000148BF7047B619524134
:1013700041EB0101A3F10103704795F0000F37D055
:101380004FEA11424FEA144721EA024624EA074C89
:1013900002FB07F106FB07F70CFB06F402FB0CFC53
:1013A00014EB074441EB17414FEA154714EB0C448B
:1013B00041EB1C4125EA074C02FB07F506FB07F74A
:1013C0000CFB06F602FB0CFC16EB074645EB17453B
:1013D00016EB0C4645EB1C42121951F1000148BFB7
:1013E0007047B619524141EB0101A3F10103704767
:1013F0004FEA14454FEA114724EA054621EA074C13
:1014000005FB07F106FB07F70CFB06F24FF00006A1
:1014100005FB0CFC12EB074241EB174112EB0C42AF
:1014200051EB1C4148BF7047921841EB0101A3F1F9
:10143000010370470146406A026C12F0500F03D05E
:10144000806B026B08461047016C41F40071016427
:101450000168C96811F4406F0CD1417E51B9016C2B
:1014600021F480710164016CC90403D4016C41F062
:101470000101016400F0AABC406A016C41F0400126
:101480000164416C41F00401416400F0A1BC406A78
:1014900000F09DBC70B504460068816801F003014E
:1014A00001292AD10168C90727D0816801F00D01FF
:1014B000012914D1816841F0020181602168032073
:1014C000086001F0F1FB054613E000BF01F0ECFB02
:1014D000401B02280DD920688068C00709D0206C05
:1014E00040F010002064606C40F001006064012056
:1014F00070BD20688068C007E8D1002070BD000082
:1015000070B504460068816801F00301012902D129
:101510000168C90725D18168134A114212D1816837
:1015200041F00101816001F0BFFB054614E000BFFE
:1015300001F0BAFB401B02280ED920680068C043A6
:10154000C00709D0206C40F010002064606C40F0AF
:1015500001006064012070BD20680068C043C007BE
:10156000E6D1002070BD00003F00008000F10801BE
:1015700031EE402A81EC040A71EEE01A82EE211A63
:1015800000EEC10AD0ED070A60EE810AC0ED070A3D
:1015900080ED060A203004F096BB10B5044688B2F0
:1015A00020806168401AC4F8EC0004F1200004F0C7
:1015B0006AFBD4ED3C0A94ED060A94ED071AF8EEA6
:1015C000E00A00EE810A84ED3D0A10BD10B503F07B
:1015D000C1FA03F007FA03F059FA0021044800F0B9
:1015E0008DF9BDE810400021024800F087B90000E5
:1015F0002C0000207C00002000F060BD00B58BB006
:1016000003F086FA00200121CDE90601089100903F
:10161000019002900390059004906946054800F0FF
:1016200047FE044801F038F90221024800F0CAFDE3
:101630000BB000BD5401002003F0AABA0F210148ED
:1016400001F075BD7C01002010B503F0C7FABDE8BC
:1016500010404FF4E021014801F038BD7C0100202A
:1016600010B5054C2060044808300160001D026080
:10167000001D036010BD00001C74014010B503F094
:10168000B3FB03F01DFC03F053FC03F093FC0021BB
:10169000084802F0B5FB0021074802F0FDFE0021DA
:1016A000064802F0F9FEBDE810400421034802F0AC
:1016B000F3BE000058020020A4020020F002002027
:1016C000014802F04BBC00003C03002010B503F0C1
:1016D000B1FCBDE8104003F08FBCFEE7014800F00C
:1016E000D3BE00005401002010B58AB040F2112092
:1016F0000023029004930820CDE90530334800937D
:101700000193D0ED3B0A90ED442AD0ED3C1A3048CD
:101710009FED300AF5EEC00A90ED3F1AF1EE10FA97
:1017200001D2F0EE400AB5EEC02AF1EE10FA01D275
:10173000B0EE402AF5EEC01AF1EE10FA01D2F0EE4A
:10174000401AB5EEC01AF1EE10FA01D2B0EE401A0E
:101750009FED210A60EE800AFDEEE00A10EE901A7D
:1017600062EE000A21EE800A8DF80010090AFDEEF3
:10177000E00A8DF8011010EE900AFDEEC00A8DF817
:101780000200000A10EE902A8DF803008DF8042064
:10179000100ABDEEC10A8DF80500104810EE104A7F
:1017A0004178E4B203290DD080788DF8060000BF9F
:1017B0008DF8074008AB6A4602A9094800F014FDFD
:1017C0000AB010BD8DF80630F2E700009008002046
:1017D000AC090020000000000000C8420400002006
:1017E0005401002070B52648264DB7EE001A2DEDA5
:1017F000028B002490ED448AD0ED410A88EE200A45
:10180000D5ED440A70EEC10A20EE200AF7EE000A78
:1018100004F090FA68EE080A9FED1B1A85ED420A63
:1018200080EE810ADFED190A20EE200ABDEEC00A23
:1018300010EE100AC1B216486429817001D96421E2
:1018400081704178022902D0012909D013E0807803
:10185000142802D24FF480340DE04FF480240AE0C3
:101860000078022802D0012803D004E04FF40034AD
:1018700001E04FF40024BDEC028B204670BD000057
:1018800090080020AC090020004004440000C84239
:1018900004000020014801F032B80000CC00002014
:1018A000014801F02CB8000010010020054A016831
:1018B00011441422B1FBF2F1890001640249C163B1
:1018C00070470000F8FFFDBF0000024030B590F8FF
:1018D00040500124AC40C56B6C6004686360436891
:1018E000102B036803D099600068C26030BD9A6015
:1018F0000068C16030BD704772B6FEE72DE9F04167
:10190000044690F83C00884601280AD0012584F856
:101910003C502046FFF7BEFD06004FF0000703D005
:1019200037E00220BDE8F08125642068816821F05D
:1019300080418160B8F1010F04D12068816841F0D5
:10194000804181602068816841F00041816001F040
:10195000ABF9054613E000BF01F0A6F9401B0A28C9
:101960000DD920688068002809DA206C20F0020078
:1019700040F01000206484F83C700120D2E7206819
:1019800080680028E8DB206C20F0020040F00100B5
:10199000206484F83C703046C4E7000070B50268EB
:1019A00000234FF0A04494B0A24200D1314C0094E7
:1019B00090F83C40012C1FD0012480F83C409268F4
:1019C00052074CD4009A9268520748D42A4A0D68AC
:1019D00040F61F7445B3956890F8306025F4604573
:1019E00045EA46354E68354395600568AE6806F0B1
:1019F0000306012E06D102E0022014B070BD2D684E
:101A0000ED0731D1009DAD6805F00305012D03D12F
:101A1000009D2D68ED0727D10D6889680D439168F9
:101A2000A1430D4395601FE0916821F460419160EE
:101A300001688D6805F00305012D02D10968C90709
:101A400012D10099896801F00301012903D100999D
:101A50000968C90708D19168A143916004E0016C4D
:101A600041F0200101640123002180F83C10184658
:101A7000C3E700000001005000030050F0B594B02F
:101A80000025009590F83C202E46012A19D0012708
:101A900080F83C7003689A6852077CD44A681F2417
:101AA000052A11D2D3F830C002EB42025200944012
:101AB0002CEA040C0C6894404CEA040CC3F830C0C7
:101AC00035E0022014B0F0BD0A2A0FD2D3F834C09A
:101AD000521F02EB4202520094402CEA040C0C68A4
:101AE00094404CEA040CC3F834C020E00F2A0FD213
:101AF000D3F838C00A3A02EB4202520094402CEA72
:101B0000040C0C6894404CEA040CC3F838C00EE096
:101B1000D3F83CC00F3A02EB4202520094402CEA48
:101B2000040C0C6894404CEA040CC3F83CC00268F6
:101B3000936813F00C0F4FF0070374D1D1F800E055
:101B4000BEF10A0F10D39469AEF10A0E0EEB4E0CE3
:101B500003FA0CFE24EA0E04D1F808E00EFA0CFE9B
:101B600044EA0E0494610FE0D2F814C00EEB4E0468
:101B700003FA04FE2CEA0E0CD1F808E00EFA04FE7B
:101B80004CEA0E0CC2F814C002684C69D2F80CC0C2
:101B9000CCF3C10C00E0E1E04FEA4C0C04FA0CF489
:101BA000D1F810E0DFF810C2BEF1010F42D0BEF153
:101BB000020F4DD0BEF1030F58D0BEF1040F63D019
:101BC000146E91F800C004F0F844B4EB8C6F03D1AC
:101BD000146E24F0004414660268546E91F800C03C
:101BE00004F0F844B4EB8C6F03D1546E24F000443D
:101BF00054660268946E91F800C004F0F844B4EBA7
:101C00008C6F03D1946E24F0004494660268D46E05
:101C100091F800C004F0F844B4EB8C6F03D1D46E9B
:101C200024F00044D4660268946804F00304012C94
:101C30003AD136E0D2F860E00EEA0C0E91F800C01E
:101C400044EA8C644EEA040E4EF000441466EAE75F
:101C5000D2F864E00EEA0C0E91F800C044EA8C64FD
:101C60004EEA040E4EF000445466DCE7D2F868E019
:101C70000EEA0C0E91F800C044EA8C644EEA040EA1
:101C80004EF000449466CEE7D2F86CE00EEA0C0EFB
:101C900091F800C044EA8C644EEA040E4EF0004411
:101CA000C0E71468E4075ED1CC68012C06D052F876
:101CB000B03F0C78A740BB43136020E052F8B04F10
:101CC00091F800C007FA0CF73C4314600A680468F6
:101CD0000A2A0AD3A769093A02EB420293409F43BA
:101CE0008B6893401F43A76109E06769521C02EBB0
:101CF000420293409F438B6893401F43676109688A
:101D00002E4A102904D0112905D0122906D02AE024
:101D100093681B0204E09368DB0101E093685B02B7
:101D2000002B20DB03684FF0A044A34202D1244FD4
:101D3000009700E000949F6807F00307012F02D18D
:101D40001F68FF070AD1009F8FB1BF6807F0030724
:101D5000012F0CD1009F3F68FF0708D0016C41F0B4
:101D600020010164012580F83C602846AAE610297C
:101D700008D011291AD01229F5D1916841F48001B7
:101D80009160F0E7A342EED1916841F400019160C7
:101D90000C490D4A0968B1FBF2F101EB81014900E0
:101DA00000E0491E00910029FBD1DCE7A342DAD113
:101DB000916841F08071E3E700F0FF830003005079
:101DC000000100502800002040420F00704770477B
:101DD00070470000F0B54FF0000595B004002F46A5
:101DE0002E46009505D0206CC00649D4206C18B151
:101DF00034E0012015B0F0BD6664E664A66484F8A2
:101E00003C60204600F0DAF820688068C00025D4E5
:101E10002046FFF73FFB0546206C00F010012943E8
:101E20001CD1206C20F4885040F00200206420680F
:101E3000816821F0405181602068816841F08051C3
:101E40008160584858490068B0FBF1F000EB800011
:101E5000400000E0401E00900028FBD1206881680F
:101E6000C90002D5806880000AD5206C20F00200ED
:101E700040F010002064606C40F0010060640125B7
:101E8000206C00F0100028437DD12068816849074C
:101E90007ED4216C21F4807141F002012164434918
:101EA0004FF0A042904200D1414A0092826802F075
:101EB0000302012A02D10068C00710D1009840B186
:101EC000806800F00300012803D100980068C00773
:101ED00005D18868626820F4403010438860D4E9F6
:101EE00002100843616B012902D04FF4805200E0D8
:101EF0000022617E42EA4132104394F820203843A8
:101F0000012A0AD1A9B1216C21F0020141F020017E
:101F10002164616C41F001016164A16A012902D070
:101F2000E26A1143084321688A6812F00C0F08D056
:101F300013E0A18C1F4A02EB4141014341F4803080
:101F4000EBE7CA6844F202039A43CA60217E94F820
:101F50003020890341EA420108432168CA68164BD0
:101F60001A400243CA60206901282068016B21F0F1
:101F70000F0102D1E269521E114301636664206CB5
:101F800020F0020000E003E040F00100206406E0E1
:101F9000206C20F0020040F010002064012528464B
:101FA00028E700002800002040420F0000030050F6
:101FB000000100500000FEFF07C0F0FF2DE9F04FC8
:101FC00087B0054614216846FEF7B3FA354A2F68F4
:101FD00000241068032380263349401C4FF4807886
:101FE0004FF400694FF0200A4FF4405BB7F1A04F67
:101FF00007D0DFF8B8C0674526D11060012826D089
:102000002DE01060012807D1486940F080504861F8
:10201000486900F080500590486940F400304861FC
:102020004869694600F40030059007208DE81900E2
:102030004FF0904000F028FD1E4F1D48E7E80204D5
:102040001C4824E0AF637D6207B0BDE8F08F4869AB
:1020500040F080504861486900F080500590486920
:1020600040F4802048614869694600F4802005906A
:102070004FF4A0408DE819000F4800F005FD0D4F0A
:102080000B4844371430E7E802040A48443087E834
:10209000500F083F00F087FC0028D3D0FFF72CFC3E
:1020A000D0E70000000000200010024000010050B6
:1020B00008000240CC000020000400482DE9F04751
:1020C0000446006890468946806840076ED494F8BC
:1020D0003C0001280CD001204FF0A04684F83C00C1
:1020E000D6F808034FF00007C00604D0012507E02A
:1020F0000220BDE8F0872046FFF702FA050002D073
:1021000084F83C7053E0206C40F60161884340F451
:1021100080702064D6F80803C00602D02068B04260
:1021200006D1206C20F4801020642068C06807E08D
:10213000216C41F4801121641E49884208D1F06865
:10214000800105D5206C20F4005040F480502064BC
:10215000206CC00404D5606C20F00600606400E0D0
:10216000676484F83C70A16B13488862A16B1348C4
:10217000C862A16B1248086321681C2008602068AF
:10218000416841F0100141602068C16841F00101DF
:10219000C160216843464A464031A06B00F02AFCEA
:1021A0002068816841F00401816000E00225284632
:1021B0009FE7000000010050351400088F1400084C
:1021C0007914000890F82020012A07D0022A05D0AF
:1021D000416A41F4802141620120704700684269F0
:1021E0000A43426100207047F0B590F8205004681F
:1021F000A468012D05D0022D03D0416A41F480214D
:1022000053E014F0406F01D1E5004BD5C4F30164F5
:10221000022C03D9416A41F4000146E00125A540A2
:102220001D608D684FF4C0739DB1CE6835434E6814
:1022300045EAC605066803EB0417F5514FF4C2756D
:10224000076805EB04150E697E51097D012905D04B
:1022500009E00E88CD6845EA4655EBE701684E591E
:1022600046F480764E511179D2F805504FF4C67677
:1022700041EA0525016806EB04168D511178D2F864
:1022800001204FF4C47541EA0221026805EB0415F0
:102290005151006803EB0411425842F001024250D0
:1022A0000020F0BD416A41F4001141620120F0BDFF
:1022B00010B590F820300268012B07D0022B05D012
:1022C000416A41F480214162012010BDD2F8000230
:1022D00040F00100C2F80002087D00F01F03012059
:1022E0009840D2F81C328343C2F81C32CB69B3B990
:1022F000D2F80C328343C2F80C328C894B6864F3F9
:102300001F434C6902EBC404C4F840320C890B68CB
:1023100064F31F434C6902EBC404C4F84432CB6934
:10232000012B16D1D2F80C320343C2F80C320C88C0
:102330004B6864F31F434C6902EBC404C4F8403299
:102340000C89CB6864F31F434C6902EBC404C4F8E6
:1023500044328B69002BD2F804320FD053EA0003C9
:10236000C2F804320B69002BD2F8143208D00343B0
:10237000C2F81432096A012904D008E08343EFE768
:102380008343F5E7D2F81C120143C2F81C12D2F8BD
:10239000000220F00100C2F80002002010BD7047CA
:1023A00030B590F82040012C05D0022C03D0416AB2
:1023B00041F480215DE00468002955D02469A40718
:1023C00054D04FF4D874056804EB01142D5915F05E
:1023D0000405956005682D594ED0ED0855600568D7
:1023E0002C5904F00204D4604FF4DA74056804EB4D
:1023F00001142D5905F00F05156105682D59C5F318
:102400000725956105682C59240C54614FF4DC7242
:10241000046802EB0112A4581C700468A458240A32
:102420005C700468A458240C9C700468A258120EB6
:10243000DA704FF4DE72046802EB0112A4581C71CA
:102440000468A458240A5C710468A458240C9C7184
:102450000468A258120EDA71006881B1016941F076
:1024600020010161002030BDE468A8E7416A41F421
:1024700000114162012030BD6D0D1560AFE7C168EC
:1024800041F02001C160EDE72DE9F05F05460068ED
:1024900000244669D0F804908768D0F80CB0D0F8D2
:1024A00010A0D0F81880F10748D0F90714D0012106
:1024B0008160B80703D5284600F01BFA0CE07807C6
:1024C00002D54FF4006407E0380702D54FF480547A
:1024D00002E0284600F00CFAF80516D529684FF4FA
:1024E00080708860B80503D5284600F004FA0CE037
:1024F000780502D544F4005407E0380502D544F4C9
:10250000804402E0284600F0F5F9F80316D5296862
:102510004FF480308860B80303D5284600F0EDF909
:102520000CE0780302D544F4004407E0380302D5F8
:1025300044F4803402E0284600F0DEF9300707D585
:102540005FEACB6004D52968102044F40074C860A9
:1025500070074FF0080707D55FEA0B7004D52868AD
:10256000C760284600F058F9B00706D52868C0684B
:10257000800702D0284600F051F9700607D55FEABF
:10258000CA6004D52968102044F480640861B0064C
:1025900007D55FEA0A7004D528680761284600F06D
:1025A00077F9F00606D528680069800702D028462A
:1025B00000F06FF9B00308D55FEAC96005D5296856
:1025C00010204860284600F065F9F00307D55FEA5F
:1025D000097004D528684760284600F08FF9300458
:1025E00046D55FEA497040D5F00504D55FEAC8706A
:1025F00001D044F00104B00504D55FEA887001D52C
:1026000044F00204700504D55FEA487001D544F037
:102610000404300529D518F0700F26D008F070009A
:10262000402815D006DC102809D020280AD03028F0
:1026300016D10AE050280ED0602811D10EE044F0E7
:1026400008040DE044F010040AE044F0200407E020
:1026500044F0400404E044F0800401E044F4807459
:102660002868816921F0700181612968042048602F
:10267000002C05D0686A204368622846FFF78FFE69
:10268000BDE8F09F70B5040003D094F8200010B1AD
:1026900004E0012070BD204600F082F82068016847
:1026A00041F00101016000F0FFFA0546052604E053
:1026B00000F0FAFA401B0A2811D820684068C007C9
:1026C000F6D02068016821F00201016000F0ECFA08
:1026D00005460BE000F0E8FA401B0A2806D9606ABC
:1026E00040F40030606284F82060D2E720684068DF
:1026F0008007EFD4207E0128206801683DD021F0BA
:1027000080010160607E01282068016838D021F0D6
:1027100040010160A07E01282068016833D021F0CB
:1027200020010160E07E0128206801682ED041F080
:1027300010010160207F01282068016829D021F064
:1027400008010160607F01282068016824D021F021
:1027500004010160D4E902010843D4E904121143E1
:1027600008436168491E08432168C861002060620F
:10277000012084F82000002070BD41F08001C0E7F6
:1027800041F04001C5E741F02001CAE721F0100106
:10279000CFE741F00801D4E741F00401D9E7000098
:1027A00010B586B0044614216846FDF7C2FE1749ED
:1027B0002068884227D11648C16941F00071C16183
:1027C000C16901F000710591416941F480214161C5
:1027D0004069694600F4802005904FF440700090F5
:1027E0000220019000200290032003900920049011
:1027F000084800F049F900221146142000F06AFD53
:10280000142000F059FD06B010BD00000064004027
:1028100000100240000400487047000000B589B075
:1028200007AB6A460021FFF7BBFD0098B0F5047FB7
:1028300020D1BDF81C009FED101A40BA00EE100A1E
:102840000E4A0F49F8EE400A80EE810A10EE100A97
:10285000904202DD9FED0B0A05E010EE100A88425F
:1028600001DAB3EE0E0A084880ED3F0A00F01CFAC8
:102870000649C86009B000BD0000C842000002431C
:102880000000F04100000243AC0900200C000020D1
:10289000704770477047000070B5044690F82000FC
:1028A000012804D0606A40F40020606218E0022031
:1028B00084F820002068016821F00101016000F027
:1028C000F3F905460EE000BF00F0EEF9401B0A28C0
:1028D00008D9606A40F400306062052084F8200066
:1028E000012070BD20684068C007EDD1606270BDF6
:1028F0007047704770477047704770477047F0B433
:10290000C16B0D6801680C68066C042202FA06F3BC
:102910002B420FD063070DD50B689B0603D40B68C1
:1029200023F004030B6090F840108A40C16B4A60AA
:10293000C16A1BE0022303FA06F72F424FF0000C96
:102940004FF0010216D0A70714D50C68A40605D4D1
:102950000C6824F00A040C6080F8212090F84010E4
:102960008B40C16B4B6080F820C0816A002918D071
:10297000F0BC08470823B3402B4212D0230710D5E0
:102980000B6823F00E030B6090F84010C36B02FA43
:1029900001F15960826380F8212080F820C0016B2A
:1029A000E4E7F0BC704770B5040021D0022084F841
:1029B00021002268116843F6F0708143D4E90103D5
:1029C0001843D4E903352B43184363691843A369BB
:1029D0001843E3691843084310602046FEF766FF7A
:1029E0000020A063012184F8211084F8200070BD2C
:1029F000012070BD70B5044690F820000025012824
:102A00000CD0012084F8200094F821600020012ED1
:102A100006D084F820000225284670BD022070BD33
:102A2000022684F82160A0632068066826F001066B
:102A300006602046FEF74AFFE06A00282068016829
:102A400002D041F00E0106E041F00A010160206869
:102A5000016821F0040101602068016841F0010172
:102A60000160D9E770B5044600F01EF90546601C08
:102A700002D004480078044400F016F9401BA0423C
:102A8000FAD370BD1C0000202DE9F04FDFF8009252
:102A9000002309F1040A012603250AF1040B85B07D
:102AA0000F270BF1040EEAE006FA03F422407CD073
:102AB00091F804C00CF0030CBCF1010F02D0BCF182
:102AC000020F26D1D0F808C0CDF800C04FEA430C61
:102AD00005FA0CF8CDF810C0DDF800C02CEA080C9F
:102AE000CDF800C0D1F80C80DDF810C008FA0CF861
:102AF000DDF800C048EA0C08C0F80880D0F804C02F
:102B00002CEA040C0C79C4F300149C4044EA0C0435
:102B100044600C79E443A4070DD0D0F80CC04FEA10
:102B2000430805FA08F42CEA040C8C6804FA08F44B
:102B300044EA0C04C4600C7904F00304022C19D19B
:102B4000DC0800EB84040294246A4FEA437C4FEAD9
:102B5000DC6CCDF810C007FA0CFC24EA0C04D1F8A8
:102B60001080DDF810C008FA0CF848EA0408029C4E
:102B7000C4F8208004684FEA430805FA08FC24EAF8
:102B80000C0491F804C00CF0030C0CFA08FC4CEA9D
:102B9000040CC0F800C04C6814F4403F6ED03D4CAB
:102BA000D4F818C04CF0010C00E067E0C4F818C07D
:102BB000A46923F0030C04F001040094364C64442F
:102BC0000294A4684FEA837C4FEA1C7807FA08FC59
:102BD00024EA0C04B0F1904F06D0DFF8C0C0604585
:102BE00005D14FF0010C12E04FF0000C0FE0DFF8C0
:102BF000B0C0604502D14FF0020C08E0DFF8A4C07D
:102C0000604502D14FF0030C01E04FF0050C0CFAC7
:102C100008FC4CEA040C029CC4F808C0D9F8004037
:102C2000CC46D1F8048094435FEAC83800D51443F9
:102C3000CCF80040DAF80040D446D1F80480944340
:102C40005FEA883800D51443CCF80040DBF8004038
:102C5000DC46D1F8048094435FEAC82800D51443C9
:102C6000CCF80040DEF80040F446D1F804809443EC
:102C70005FEA882800D51443CCF800405B1C0A6842
:102C800032FA03F47FF410AF05B0BDE8F08F000016
:102C90000004014000100240000001400004004810
:102CA00000080048000C0048014880687047000098
:102CB0001C00002010B590F8C020012A21D001226C
:102CC00080F8C020022380F8C1304B1C1BD0036861
:102CD000D3F8CC4344F00204C3F8CC430368D3F8E0
:102CE000CC4324F00C040C43C3F8CC430168D1F866
:102CF000CC3343F00103C1F8CC3380F8C12000206D
:102D000010BD022010BD0168D1F8CC3323F00203BE
:102D1000C1F8CC33EAE7000070B590F8C130022B5F
:102D20003CD090F8C030012B38D0012500F8C05FAE
:102D3000022343701388948803F4E053C4F3080417
:102D40001C4313896FF07E4603F400732343148AF7
:102D500004F480441C43938903F400432343948A7E
:102D600006EA04441C43936903F000732343146A86
:102D7000D26904F080441C4302F00042224350F820
:102D8000C03CB82404EBC1141959054E314011431D
:102D90001951457000210170084670BD022070BDB8
:102DA0000020003C38B5040054D0022084F8C10053
:102DB0000025C4F8C450C4F8C850C4F8CC50C4F8B6
:102DC000D050C4F8D450C4F8D850207AC0071BD0D3
:102DD00021492068884208D12048816941F000518A
:102DE0008161806900F0005000902168086820F43B
:102DF0004042208A00F44040104320F44052A08A10
:102E000000F4405010430860204600F029F8207A72
:102E1000800708D52168086820F44072A08900F472
:102E2000407010430860012084F8C10084F8C0504D
:102E30005FF00001C1EBC10004EB8000491C85611B
:102E4000C561056245628562C9B205630529F1D98C
:102E5000002038BD012038BD007401400010024040
:102E600008B500680649884208D10648816941F0E2
:102E700000518161806900F00050009008BD0000A1
:102E8000007401400010024010B586B004461421C1
:102E90006846FDF74EFB0F492068884218D10E485E
:102EA000416941F4003141614069694600F40030F4
:102EB00005904FF470600090022001900020029075
:102EC000032003900D2004904FF09040FFF7DCFDAD
:102ED00006B010BD007401400010024070B50D46F0
:102EE0000446FFF7E1FE064607E0681C05D0FFF741
:102EF000DBFE801BA8420DD865B12068D0F888039E
:102F0000C043C003F1D4012084F8C100002084F83C
:102F1000C00070BD072084F8C100032070BD70B5EB
:102F200090F8C130022B23D0022380F8C13005294C
:102F300020D08023046803EBC115635923F00706F2
:102F40009368334323F01806D368334363519425C1
:102F5000046805EBC115136863519824036804EBFA
:102F6000C11152685A50012180F8C110002070BD73
:102F7000022070BD0368196821F00704916821439D
:102F800021F01804D1682143196003681168596160
:102F9000516802689161E6E72DE9F04F90F8C14071
:102FA000022C25D090F8C040012C21D04FF001090F
:102FB00080F8C090022480F8C14000274FF0070C31
:102FC000052918D09C2404EBC116012A39D080248D
:102FD000A8254FF4005A4FF4405B05EBC11504EBF4
:102FE000C114022A2FD0042A45D0082A0BD144E06C
:102FF0000220BDE8F08F012A0AD0022A0CD0042A50
:103000000ED0082A10D080F8C1C080F8C0700EE041
:1030100002681968D1610AE002681968516206E025
:1030200002681968916202E002681968D16290F83A
:10303000C110072948D080F8C19080F8C0700020E6
:10304000D7E7196835E04FF0A408D0F800C008EBC6
:10305000C1111A684CF801205968002901680A5901
:1030600022F440522ED00A5101680A59D3F804C004
:1030700042EA0C0218E0196821E04FF0AC08D0F8E1
:1030800000C008EBC1111A684CF8012059680029EA
:1030900001680A5922F4404214D00A5101680A59C1
:1030A000D3F804C042EA8C020A515968514503D151
:1030B000996802689151BAE75945B8D19968026890
:1030C0005151B4E70A51B2E7012092E710B590F8E8
:1030D000C020012A0ED0012200F8C02F0223437025
:1030E00050F8C03C1C680C431C6042700021017009
:1030F000084610BD022010BD70B5044690F8C1000E
:10310000022811D094F8C00001280ED0012584F8BF
:10311000C050022084F8C100204601F059FB84F819
:10312000C150002084F8C00070BD022070BD10B5F1
:1031300090F8C020012A10D0012200F8C02F0223ED
:10314000437050F8C03CD3F894430C43C3F8944305
:10315000427000210170084610BD022010BD2DE90B
:10316000F041054690F8C10014460E46022825D0CD
:1031700095F8C000012823D0012785F8C0700220EF
:1031800085F8C100052E1DD0284601F088FBC6EB4E
:10319000C60005EB80002168016261684162A16898
:1031A0008162E168C162216901633146284601F00C
:1031B000E2FA85F8C170002085F8C000BDE8F08112
:1031C0000220FBE728680168D0F8A02321F0200343
:1031D0006169194321F40063A169194321F48063F3
:1031E000E169194321F0C063216A194321F00063AA
:1031F000616A1943A36A21F0404141EA830121F049
:103200000053216B194322F48033E26A01601A43B0
:103210002868C0F8A023BAE7024881680278114400
:10322000816070471C000020074810B5016841F01C
:1032300010010160032000F06DF8022000F006F894
:1032400000F024F8002010BD0020024070B50D4DA4
:1032500004464FF47A712878B1FBF0F00A49096806
:10326000B1FBF0F000F038FD48B9102C07D2002275
:103270002146501E00F02EF800206C6070BD012029
:1032800070BD00001C00002028000020094808B57F
:10329000816941F001018161816901F001010091C1
:1032A000C16941F08051C161C06900F08050009057
:1032B00008BD000000100240002809DB00F01F02DA
:1032C000012191404009800000F1E020C0F8001188
:1032D00070470000F0B40E4B1B680C46C3F302238A
:1032E000C3F10705042D00D90425191D072901D2B2
:1032F000002300E0DB1E012606FA05F1491E2140ED
:1033000099409E40761E16403143F0BC02F002BD4B
:103310000CED00E0064900F0070208684FF6FF03D5
:10332000184040EA0220034A10430860704700003A
:103330000CED00E00000FA052DE9F84F04460068A6
:1033400000265C4DC0036ED5E869C00008D4E8696A
:1033500040F08050E861E869012600F0805000905C
:1033600055480168C90512D40168804641F480714E
:103370000160FFF799FC074605E000BFFFF794FCEA
:10338000C01B642835D8D8F80000C005F6D5286AD7
:1033900010F4407053D0A18801F4407181424ED0A6
:1033A000286A4FF4803191FAA1F2B2FA82F29700C2
:1033B000424A4FF00108174420F44070C7F80084D7
:1033C00091FAA1F1B1FA81F102EB81010023C1F878
:1033D00000342862C00732D0FFF766FC074641F28E
:1033E000883A4FF0020907E0FFF75EFCC11B514528
:1033F00002D90320BDE8F88F99FAA9F1B1FA81F159
:1034000041F040014846B8EB511F01D129680CE05A
:1034100090FAA0F1B1FA81F141F04001B0EB511FF7
:1034200002D1296A01E015E0696A99FAA9F0B0FAB7
:1034300080F000F01F0008FA00F21142D4D0286A90
:10344000616820F44070084328621EB1E86920F0EA
:103450008050E8612078C00705D0286BA16820F073
:103460000300084328632078800605D5286BE168AF
:1034700020F01000084328632078000605D5E86A8C
:10348000216920F4F8700843E8622088C00405D55B
:10349000286B616920F48070084328632088400409
:1034A00005D5286BA16920F48050084328630020CB
:1034B000A0E70000001002400070004000004242FF
:1034C000704700002DE9F0470F46050069D04A4ECD
:1034D000306800F00700B84209D2306820F00700D9
:1034E00038433060306800F00700B84259D128787E
:1034F000424C800705D56068A96820F0F0000843B9
:1035000060602878C0073DD06968012001290DD08E
:10351000022923D05FF0020393FAA3F2B2FA82F2F7
:1035200042F02002520904D0226803E04FF4003335
:10353000F2E7626A93FAA3F3B3FA83F303F01F038B
:10354000984002422DD0606820F00300084360607C
:10355000FFF7AAFB804641F288390CE04FF0007378
:10356000DAE700BFFFF7A0FBA0EB0801494502D94D
:103570000320BDE8F0876068696800F00C00B0EBDC
:10358000810FEFD1306800F00700B8420BD93068E6
:1035900020F0070038433060306800F00700B84280
:1035A00001D00120E5E72878400705D56068E96883
:1035B00020F4E060084360602878000706D5606862
:1035C000296920F4605040EAC100606000F05AF8B8
:1035D0006168F02292FAA2F201F0F001B2FA82F2EE
:1035E000D140074A515CC840064908600648006857
:1035F000FFF72CFE0020BCE7002002400010024034
:10360000CC64000828000020200000200120C10414
:1036100091FAA1F1024AB1FA81F142F82100704712
:103620000000424208480949006849684FF4E062D6
:1036300092FAA2F201F4E061B2FA82F2D140044AB5
:10364000515CC84070470000280000200010024074
:10365000DC64000808480949006849684FF4605272
:1036600092FAA2F201F46051B2FA82F2D140044A15
:10367000515CC84070470000280000200010024044
:10368000DC640008174A10B55168174801F00C03B4
:10369000042B02D0082B01D0144810BD4FF4701435
:1036A00094FAA4F401F47013B4FA84F4E340104CD7
:1036B000D26AE45C0F2393FAA3F302F00F02B3FA89
:1036C00083F3DA400A4B1033C9039A5C06D5002312
:1036D0001946FCF7D5FDA0FB040110BD0548A4FB6D
:1036E000000110BD00100240C0FC9B0100127A00D6
:1036F000AC64000800093D0010B5044CA068000649
:1037000003D5FFF7DDFE8020A07210BD001002403F
:103710002DE9F84F050071D02878FC4EC0074FF016
:10372000010425D070686704C0F38100012807D028
:103730007068C0F3810002281BD17068C00318D5DF
:1037400097FAA7F0B0FA80F040F02000400901D0CD
:10375000306800E0706A97FAA7F1B1FA81F101F0E0
:103760001F0104FA01F1084265D068680028D2D030
:1037700061E06868B0F5803F0BD010B1B0F5A02FC4
:1037800017D0306820F480303060306820F480201A
:1037900002E0306840F480303060F06AA96820F0C0
:1037A0000F000843F062686820B3FFF77DFA804697
:1037B0000AE0306840F480203060EAE7FFF774FAEE
:1037C000A0EB0800642871D897FAA7F0B0FA80F04F
:1037D00040F02000400901D0306800E0706A97FA9C
:1037E000A7F1B1FA81F101F01F0104FA01F10842D9
:1037F000E4D020E0FFF758FA804607E0C2E000BFBF
:10380000FFF752FAA0EB08006428DCD897FAA7F07B
:10381000B0FA80F040F02000400901D0306800E0AC
:10382000706A97FAA7F1B1FA81F101F01F0104FA69
:1038300001F10842E4D12878DFF8D48280074FF004
:10384000000A4FF0020730D570684FF0F80B10F007
:103850000C0F07D07068C0F38100022827D1706870
:10386000C00324D497FAA7F0B0FA80F040F020000B
:10387000400901D0306800E0706A97FAA7F1B1FA08
:1038800081F101F01F0104FA01F1084202D0286918
:10389000012877D130689BFAABF220F0F801686913
:1038A000B2FA82F29040014331605AE064E1286943
:1038B00088B394FAA4F0B0FA80F048F82040FFF7FB
:1038C000F3F9814606E000BFFFF7EEF9A0EB09002F
:1038D00002289AD897FAA7F0B0FA80F040F02000BA
:1038E000400901D0306800E0706A97FAA7F1B1FA98
:1038F00081F101F01F0104FA01F10842E4D03068BF
:103900009BFAABF26969B2FA82F220F0F8009140BA
:103910000843306025E0FFE794FAA4F0B0FA80F0A5
:1039200048F820A0FFF7C0F9814605E0FFF7BCF991
:10393000A0EB09000228CCD897FAA7F0B0FA80F0E3
:1039400040F02000400901D0306800E0706A97FA2A
:10395000A7F1B1FA81F101F01F0104FA01F1084267
:10396000E4D1287800076CD5A869A8B394FAA4F02C
:10397000B0FA80F008EB8000C0F88044FFF794F9BB
:10398000814607E0A4E100BFFFF78EF9A0EB090034
:1039900002289ED897FAA7F0B0FA80F040F06000B5
:1039A000B4EB501F01D130680BE097FAA7F0B0FAE2
:1039B00080F040F06000B7EB501F01D1306A00E0AA
:1039C000706A97FAA7F1B1FA81F101F01F0104FAC8
:1039D00001F21042D8D034E0FFE794FAA4F1B1FA32
:1039E00081F108EB8101C1F880A4FFF75DF9814600
:1039F00006E000BFFFF758F9A0EB090002289AD8AB
:103A000097FAA7F0B0FA80F040F06000B4EB501FD6
:103A100001D130680BE097FAA7F0B0FA80F040F0DF
:103A20006000B7EB501F01D1306A00E0706A97FA6E
:103A3000A7F1B1FA81F101F01F0104FA01F210427D
:103A4000D8D12878400768D5F0694FF00009C00048
:103A500009D4F06940F08050F061F0694FF001093D
:103A600000F0805000902B480168C90512D401680D
:103A700041F480710160FFF717F9834606E000BF4B
:103A8000FFF712F9A0EB0B00642875D821480068F5
:103A9000C005F5D5E86801280AD008B1052811D07D
:103AA000306A20F001003062306A20F0040002E049
:103AB000306A40F001003062E86868B3FFF7F4F85C
:103AC00083460DE0306A40F004003062F0E700BF4A
:103AD000FFF7EAF8A0EB0B0141F2883081424BD8A6
:103AE00097FAA7F0B0FA80F040F04000B4EB501F16
:103AF00001D1306813E097FAA7F0B0FA80F040F0F7
:103B00004000B7EB501F09D1306A08E000100240B6
:103B100000004242007000400CE040E0706A97FAFA
:103B2000A7F1B1FA81F101F01F0104FA01F210428C
:103B3000CED02DE0FFF7B8F8834607E0FFF7B4F8E2
:103B4000A0EB0B0141F28830814215D897FAA7F01B
:103B5000B0FA80F040F04000B4EB501F01D1306863
:103B60000CE097FAA7F0B0FA80F040F04000B7EB15
:103B7000501F02D1306A01E083E0706A97FAA7F122
:103B8000B1FA81F101F01F0104FA01F21042D5D11E
:103B9000B9F1000F03D0F06920F08050F061E869BE
:103BA00080B37168C1F38101022977D04FF0807131
:103BB0004F000228504609D091FAA1F1B1FA81F1E3
:103BC00048F82100FFF770F805465DE0894691FA54
:103BD000A1F1B1FA81F1C24648F82100FFF764F87B
:103BE000804605E0FFF760F8A0EB0800022848D8FF
:103BF00097FAA7F0B0FA80F040F02000400902D018
:103C0000306801E066E0706A97FAA7F1B1FA81F1D5
:103C100001F01F0104FA01F10842E3D1D5E90810CF
:103C20000843716821F474110843706099FAA9F08F
:103C3000B0FA80F04AF82040FFF736F8054604E075
:103C4000FFF732F8401B02281BD897FAA7F0B0FA0A
:103C500080F040F02000400901D0306800E0706A38
:103C600097FAA7F1B1FA81F101F01F0104FA01F10D
:103C70000842E5D02EE000BFFFF716F8401B0228EF
:103C800002D90320BDE8F88F97FAA7F0B0FA80F0C8
:103C900040F02000400902D0306801E00BE0706A7B
:103CA00097FAA7F1B1FA81F101F01F0104FA01F1CD
:103CB0000842E1D10EE00128E4D070682A6A00F4DD
:103CC0008031914204D1696A00F47010884201D0B9
:103CD0000120D7E70020D5E710B5401EB0F1807F66
:103CE00001D3012010BD4FF0E02460610F21601767
:103CF00002F010F80020A06107202061002010BD14
:103D0000704770477047000030B590F83C20012A9A
:103D100037D0012280F83C20CA688C6822F44072B7
:103D200022434C6822F4806222430C6822F4006231
:103D300022430C6922F4805222434C6922F400523F
:103D400022438C6A22F4804222430C8B22F470229C
:103D500042EA04420C4D04680023AC420CD18D8C25
:103D600022F4700242EA0552CD6922F080722A43A1
:103D7000096A22F000720A43626480F83C30002035
:103D800030BD022030BD0000002C0140F0B590F89D
:103D90003C20012A2CD0012480F83C40022280F8EB
:103DA0003D2003685A689D68124EB34203D122F445
:103DB00070074A683A4322F070070A683A435A602B
:103DC0000268B24208D0B2F1804F05D00A4B9A4245
:103DD00002D00A4B9A4204D1896825F08003194326
:103DE000916080F83D40002180F83C100846F0BD0D
:103DF0000220F0BD002C01400004004000400140C2
:103E000010B50446022249B104290ED0082913D066
:103E100094F84700012816D0012010BD94F8440002
:103E20000128F9D184F844200FE094F845000128D6
:103E3000F2D184F8452008E094F846000128EBD13F
:103E400084F8462001E084F847200422206801F02D
:103E5000CAFB2068416C41F4004141640D4920686F
:103E6000884208D0B0F1804F05D00B49884202D07B
:103E70000A49884207D18168094A1140062906D0BB
:103E8000B1F5803F03D0016841F0010101600020DD
:103E900010BD0000002C0140000400400040014023
:103EA0000700010010B5040003D094F83D0010B1E4
:103EB00007E0012010BD002084F83C00204600F0FF
:103EC00023F8022084F83D00211D206801F03AFB10
:103ED000012084F8480084F83E0084F83F0084F80C
:103EE000400084F8410084F8420084F8430084F8DC
:103EF000440084F8450084F8460084F8470084F8BC
:103F00003D00002010BD000008B5114A01681148AD
:103F1000914208D1816941F400618161806900F4B6
:103F20000060009008BD0C4A9142FBD1C16941F08C
:103F30001001C161C069002200F010000090012151
:103F40003620FFF7C7F9BDE808403620FFF7B4B9BF
:103F5000002C0140001002400010004090F83D107D
:103F6000012901D001207047022180F83D1001682D
:103F7000CA6842F00102CA6000680D49884208D050
:103F8000B0F1804F05D00B49884202D00A498842DF
:103F900007D18168094A1140062906D0B1F5803F52
:103FA00003D0016841F0010101600020704700006A
:103FB000002C0140000400400040014007000100C7
:103FC00070B5044690F83C000025012817D0012662
:103FD00084F83C60022084F83D00226890682F4BF2
:103FE000184020F47F4090600868502838D00DDCDD
:103FF00020284FD005DC90B3102811D14AE00220D0
:1040000070BD302846D040280AD13BE060282FD030
:1040100070280DD0B0F5805F03D0B0F5005F12D0EE
:10402000012584F83D60002084F83C00284670BDDE
:10403000CB68D1E90121206801F0E2FA20688168AB
:1040400041F0770109E0CB68D1E90121206801F056
:10405000D7FA2068816841F480418160E1E719E086
:10406000CA684968206801F03DFC5021206806E0DC
:10407000CA684968206801F046FC6021206801F0A8
:10408000C9FACEE7CA684968206801F02BFC4021D4
:104090002068F4E7226801461046F0E788FFFEFF3B
:1040A000704770B50446006801694FF00005C943C8
:1040B000890715D4C168C943890711D4E91E016174
:1040C00001202077206880698007204602D0FFF712
:1040D000E7FF04E000F0FCF8204600F0DBF925776C
:1040E00020680169C943490717D4C168C943490712
:1040F00013D46FF0040101610220207720688069E9
:1041000010F4407F204602D0FFF7CAFF04E000F021
:10411000DFF8204600F0BEF9257720680169C94321
:10412000090716D4C168C943090712D46FF0080102
:104130000161042020772068C0698007204602D0F2
:10414000FFF7AEFF04E000F0C3F8204600F0A2F94C
:10415000257720680169C943C90617D4C168C943D6
:10416000C90613D46FF01001016108202077206880
:10417000C06910F4407F204602D0FFF791FF04E0B1
:1041800000F0A6F8204600F085F92577206801693F
:10419000C943C90708D1C168C943C90704D1891EE9
:1041A0000161204600F0EAF920680169C943090667
:1041B00009D4C168C943090605D46FF080010161C3
:1041C0002046FFF79EFD20680169C943C90509D44F
:1041D000C168C943090605D46FF4807101612046A6
:1041E000FFF78EFD20680169C943490609D4C168FB
:1041F000C943490605D46FF040010161204600F033
:10420000C5F920680169C94389060BD4C168C9434F
:10421000890607D46FF0200101612046BDE8704097
:10422000FFF770BD70BD000030B587B004461421A3
:104230006846FCF77EF9246821480021214A0223C0
:10424000844211D1506940F400205061506900F45B
:104250000020059018030090CDE901310420CDE93C
:1042600003106946184816E04FF09040B4F1804FB3
:1042700015D0164DAC4210D1546944F40034546149
:10428000526902F40032059250220092CDE90131C8
:10429000CDE903136946FEF7F7FB07B030BD54695B
:1042A00044F400345461526902F400320592202231
:1042B0000092CDE90131039101210491EAE7000068
:1042C000002C01400010024000080048000400409B
:1042D000704770B5044690F83C0000260D46012852
:1042E0000BD0012084F83C000C2A4AD007DC82B1B4
:1042F000042A20D0082A06D131E0022070BD102AFD
:1043000053D0142A63D00126002084F83C003046A4
:1043100070BD206801F086F92068816941F00801CC
:1043200081612068816921F00401816120688169CF
:104330002A69114311E0206801F0B8F92068816909
:1043400041F4006181612068816921F480618161AB
:10435000206881692A6941EA02218161D4E72068E5
:1043600001F0E4F92068C16941F00801C1612068E9
:10437000C16921F00401C1612068C1692A69114342
:1043800011E0206801F012FA2068C16941F400616F
:10439000C1612068C16921F48061C1612068C1697F
:1043A0002A6941EA0221C161AEE7206801F034FACE
:1043B0002068416D41F0080141652068416D21F0A0
:1043C000040141652068416D2A69114311E02068AC
:1043D00001F054FA2068416D41F4006141652068A4
:1043E000416D21F4806141652068416D2A6941EA8F
:1043F0000221416588E710B5040003D094F83D0020
:1044000010B107E0012010BD002084F83C002046D8
:1044100000F022F8022084F83D00211D206801F000
:1044200091F8012084F8480084F83E0084F83F00A9
:1044300084F8400084F8410084F8420084F8430086
:1044400084F8440084F8450084F8460084F8470066
:1044500084F83D00002010BD08B501680B48B1F19B
:10446000804F0BD00A4A914207D1C16941F0020145
:10447000C161C06900F00200009008BDC16941F04F
:104480000101C161C06900F00100F5E700100240C0
:10449000000400407047000010B50446022269B1D4
:1044A000042912D0082917D00C291CD0102921D09A
:1044B00094F84300012824D0012010BD94F83E0058
:1044C0000128F9D184F83E201DE094F83F0001282E
:1044D000F2D184F83F2016E094F840000128EBD197
:1044E00084F840200FE094F841000128E4D184F8DA
:1044F000412008E094F842000128DDD184F84220F0
:1045000001E084F843200122206801F05FF815499A
:104510002068154A884207D0904205D0134B984234
:1045200002D0134B984203D1436C43F400434364DD
:104530002068884207D0B0F1804F04D00D498842EE
:1045400001D0904207D181680B4A1140062906D05C
:10455000B1F5803F03D0016841F001010160002006
:1045600010BD0000002C014000400140004401400B
:104570000048014000040040070001000249884251
:1045800001D101F095BC70473C030020704710B585
:10459000040002D0A06F10B107E0012010BD002080
:1045A00084F87400204600F025F82420A0672068D5
:1045B000016821F001010160204601F049FA01285B
:1045C000ECD0606A10B1204601F0AFF92068416874
:1045D00021F4904141602068816821F02A018160C6
:1045E0002068016841F0010101602046BDE81040EB
:1045F00001F0FFB92DE9F04387B004461421684665
:10460000FBF797FF2A4A216800252A48022403263F
:104610000727DFF8A49091422CD1C16941F4003101
:10462000C161C16901F400310591416941F4003172
:104630004161416901F400310591416941F48021F2
:10464000416140694FF0080800F48020CDF80080F7
:10465000CDE9047001AA694682E870004FF09040ED
:10466000FEF712FA01AACDF8008082E8F000694650
:10467000484618E0114A914217D1C16941F480219E
:10468000C161C16901F480210591416941F4802132
:1046900041614069694600F4802005904FF4406014
:1046A0008DE8F1004846FEF7EFF907B0BDE8F0836A
:1046B0000044004000100240000400480048004050
:1046C0002DE9F8430446806F1F4616460D46202804
:1046D0004FD1CDB1C6B194F87400012849D0012062
:1046E00084F874004FF00008C4F880802120A0678F
:1046F000FEF7DAFAA4F850608146A4F85260A06888
:10470000B0F5805F03D004E00120BDE8F8832069A4
:1047100028B12E465FF0000584F8748010E0002672
:10472000FAE78021204601F035FAB8B9C6B116F88B
:10473000010B21680885B4F85200401EA4F852000D
:10474000B4F852004B464FF0000200970028E8D121
:104750004FF04001204601F01DFA30B10320D4E7AC
:1047600035F8020BC0F30800E3E72020A067002023
:10477000CBE70220C9E7062911D2DFE801F00911D1
:10478000171D23030068D0F8841341F0010104E0F1
:104790000068D0F8841341F00201C0F88413704718
:1047A0000068D0F8841341F00401F6E70068D0F8FF
:1047B000841341F00801F0E70068D0F8841341F059
:1047C0001001EAE70068D0F8841341F02001E4E723
:1047D000F0B50024E425076805EBC11657F806C0BC
:1047E000B82505EBC1157D59202A27D00CDC042AF9
:1047F00015D004DC012A12D0022A2BD11EE0082A8F
:104800001CD0102A26D10AE0402A08D0802A15D0D0
:10481000B2F5807F03D0B2F5007F1BD10EE04FF0E0
:10482000BC0E0EEBC11E5A6847F80E204FF0C00EAA
:1048300007680EEBC1119A687A500BE0C42404EBB0
:10484000C1145A683A51C827046807EBC1119A6825
:1048500062501024FE21A1401A682CEA010CA240EB
:10486000D96842EA0C02A14011431A69D3F814C076
:104870001746A2400A430CFA04FC99694CEA020C60
:10488000A14041EA0C01082F06D1AA0504D4AA01CF
:1048900002D4DA69A240114300688151F0BD2DE9CC
:1048A000F04F8024036804EBC1169C5924F0704437
:1048B0009C5103689A469D59E82404EBC114A6460E
:1048C00053F80490E42404EBC114A3461C59D3F814
:1048D000A03325F0200755693D4325F4006795690D
:1048E0003D4325F48067D5693D4325F0C067156ACF
:1048F0003D4325F00067556A3D4325F07047956AB2
:104900003D43176B25F40035B7F1005F01D145F445
:10491000003525F04007556BD2F848802F4327F427
:10492000802C176D47EA0C0727F0FC7748EA070848
:1049300092F8387029F01F0C07F01F0747EA0C07A0
:1049400027F0004CD76B47EA0C0725B924F4807C8C
:10495000146C44EA0C04D2F844C0BCF5606F02D079
:10496000BCF5F05F01D1402D03D124F4F0544CEAA2
:104970000404D56C052921D2DFE801F003090F15E5
:104980001B00D26A23F4003343EA420316E0D26AE2
:1049900023F4802343EA820310E0D26A23F4002345
:1049A00043EAC2030AE0D26A23F4801343EA021303
:1049B00004E0D26A23F4001343EA42134AF8068063
:1049C000066846F80E70066846F80B40D424026864
:1049D00004EBC11155500068C0F8A033BDE8F08F5A
:1049E000FEE7000070B58AB00024069407941821F1
:1049F00068460894FBF79DFD23484FF0A041012530
:104A0000C0E9001405618460457680F82040C0E963
:104A10000A540326C661C46080F830500421416105
:104A200004764463FDF7D6F908B1FCF765FF06A9E3
:104A300015480694FCF7B2FF08B1FCF75DFF0720AC
:104A4000CDE9020400950195049469460E48059449
:104A5000FDF714F808B1FCF74FFF02200090019019
:104A600069460948FDF70AF808B1FCF745FF0096CA
:104A7000694605480196FDF701F8002801D0FCF7CA
:104A80003BFF0AB070BD00002C00002070B586B05E
:104A900018216846FBF74DFD1C481B490024C0E95E
:104AA0000014012505618460457680F82040C0E946
:104AB0000A540226C661C46080F830500421416166
:104AC00004764463FDF786F908B1FCF715FF0D2065
:104AD000CDE900050720CDE90204049469460B489E
:104AE0000594FCF7CBFF08B1FCF706FF0E20CDE9DB
:104AF000000669460548FCF7C1FF002801D0FCF715
:104B0000FBFE06B070BD0000000100507C000020DC
:104B10000F4810B50D4901600221416000214FF49A
:104B200000228160C0E903124FF4E0024261017685
:104B300041768176C17601774177FDF7A3FD0028A4
:104B400003D0BDE81040FCF7D7BE10BD00640040A4
:104B5000540100200D4808B5416941F0010141614F
:104B60004069002200F00100009011460B20FEF782
:104B7000B1FB0B20FEF7A0FB002211460C20FEF734
:104B8000A9FBBDE808400C20FEF796BB00100240D0
:104B9000114808B5416941F400214161416901F4BE
:104BA00000210091416941F480014161416901F4B2
:104BB00080010091416941F400314161416901F492
:104BC00000310091416941F480214161406900F464
:104BD0008020009008BD00000010024030B5ADB04C
:104BE0000024269427942894542168462994FBF79E
:104BF000A0FC2A942B9424211DA82C94FBF799FC4B
:104C0000202115A8FBF795FC76487549C0E90014EA
:104C10008460FEF7C7F808B1FCF76EFE0C217148FE
:104C2000FEF748F808B1FCF767FE0A216D48FEF769
:104C300055F908B1FCF760FE4FF47A70CDE926040F
:104C4000042028900820299026AA05216548FEF70F
:104C500066F908B1FCF750FE00940194012002941B
:104C6000CDE90340059406940794089409940A94A6
:104C70000B946A4605215B480C94FEF770FA08B164
:104C8000FCF73AFE4FF4FA702A902AAB0122052174
:104C90005448FEF781F908B1FCF72EFE2AAB022238
:104CA00005215048FEF778F908B1FCF725FE2AAB3C
:104CB000042205214B48FEF76FF908B1FCF71CFEF2
:104CC0002AAB082205214748FEF766F908B1FCF730
:104CD00013FE26AA00214348FEF721F908B1FCF78C
:104CE0000BFE4FF0006009908000CDE90C044515E3
:104CF000009401940E94CDE90F45119412941394ED
:104D00006A46002137481494FEF729FA08B1FCF7E7
:104D1000F3FD6A4601213348FEF721FA08B1FCF79A
:104D2000EBFD4FF440601D901420CDE91E0420944B
:104D3000CDE92140239424941DAA002129482594DB
:104D4000FDF7EAFF08B1FCF7D7FD1DAA01212548B0
:104D5000FDF7E2FF08B1FCF7CFFD4FF40070CDE99D
:104D60001545CDE9170419941A941B9415AB01222B
:104D700000211C481C94FEF7BFF908B1FCF7BCFDEC
:104D80004FF4806016904000179015AB042201216B
:104D90001448FEF7B1F908B1FCF7AEFD169415AB57
:104DA000022200210F481794FEF7A6F908B1FCF77C
:104DB000A3FD15AB082201210A48FEF79DF908B1B1
:104DC000FCF79AFD26AA01210648FEF7A8F808B1CB
:104DD000FCF792FD0348FEF757F82DB030BD0000F8
:104DE000007401407C01002010B59AB00024179493
:104DF000189415941694129413941C210BA81494CF
:104E0000FBF797FB2C216846FBF793FB2B482A49BD
:104E1000016040F2CF21C0E901146321C0E903140D
:104E200044618461FFF73EF808B1FCF765FD4FF47B
:104E30008050159015A92148FFF7C2F808B1FCF77A
:104E40005BFD1E48FFF7D7FA08B1FCF755FD129439
:104E5000139412A919481494FEF798FF08B1FCF7AF
:104E60004BFD6020CDE90B040D940E940F9410942B
:104E700000220BA911481194FFF72BFA08B1FCF797
:104E80003BFD00944FF40050CDE90440019402949E
:104E9000039400030694CDE9074009946946074846
:104EA0000A94FEF731FF08B1FCF726FD0348FFF72F
:104EB000BBF91AB010BD0000002C014058020020C0
:104EC00010B58AB00024079408941C216846099400
:104ED000FBF72FFB15484FF08041016040F2CF21D6
:104EE000C0E901146321C0E903148461FFF783FA68
:104EF00008B1FCF701FD079407A90C480994FEF7D7
:104F000045FF08B1FCF7F8FC6020CDE900040294ED
:104F10000022694605480494FFF7DBF908B1FCF765
:104F2000EBFC0248FFF780F90AB010BDA402002094
:104F300010B58AB00024079408941C21684609948F
:104F4000FBF7F7FA1A481949016040F2CF21C0E98E
:104F500001146321C0E903148461FFF74CFA08B11E
:104F6000FCF7CAFC079407A911480994FEF70EFF45
:104F700008B1FCF7C1FC6020CDE9000402940022D6
:104F800069460B480494FFF7A4F908B1FCF7B4FC98
:104F9000042269460648FFF79CF908B1FCF7ACFC0F
:104FA0000348FFF741F90AB010BD000000040040BB
:104FB000F00200203EB500240E48009401940C49F4
:104FC000029401604721C0E9011431218461C1606C
:104FD000FEF768FF08B1FCF78FFC009469460548AE
:104FE0000294FEF7D3FE002801D0FCF785FC3EBDFD
:104FF000001000403C0300200D4810B50B49016033
:105000004FF4E1314160002181600C22C160C0E9B0
:1050100004128161C16101624162FFF7B8FA0028A0
:1050200003D0BDE81040FCF767BC10BD0044004051
:10503000880300200D4810B50B4901604FF4E131A1
:105040004160002181600C22C160C0E904128161CD
:10505000C16101624162FFF79AFA002803D0BDE8FE
:105060001040FCF749BC10BD004800400C04002073
:10507000FEE7FEF741FBFEE7A0B1D0ED131AC0ED4D
:10508000141A90ED121A80ED131AC0ED090A80ED82
:105090000A0A30EEC00A80ED120A017829B101290E
:1050A0003BD078E09FED3D0A7047D0ED010A60EEFD
:1050B000801AC0ED0C1AD0ED0D0A90ED022A42EED6
:1050C000000A30EE410AC0ED0D0A90ED102A80ED85
:1050D000112A90ED0F2A80ED102A80ED0F0A90ED35
:1050E000031A21EE001A80ED0E1A90ED070AF4EE75
:1050F000C00AF1EE10FA09DCB1EE400AF4EEC00A83
:10510000F1EE10FA02D390ED0D0A01E080ED0D0AE8
:1051100031EE800A30EE010A2BE070EE410A90ED8C
:10512000012A20EE822A80ED0C2AD0ED020A60EEE0
:10513000800AC0ED0D0AD0ED102A72EE200AC0EDF3
:10514000112AD0ED0F2AC0ED102AF0EE002A01EE50
:10515000620A30EE210A80ED0F0A90ED031A21EE6B
:10516000000A80ED0E0A30EE800AD0ED0B0A30EE18
:10517000200A80ED0B0AD0ED050AB4EEE00AF1EE4C
:1051800010FA06DCF1EE600AB4EEE00AF1EE10FA75
:1051900001D2C0ED0B0A90ED0B0A70470000000031
:1051A000002821D00170C0ED051A80ED072AC0ED5E
:1051B000062A80ED083A021D82EC030A9FED0B0AD5
:1051C00080ED110A80ED100A80ED0F0A80ED0B0AC8
:1051D00080ED0E0A80ED0D0A80ED0C0A80ED140AB8
:1051E00080ED130A80ED120A7047000000000000F5
:1051F000704700002DE9F04F2A492E4A00200D7813
:105200002B4992ED410A284CD1F8103501F2EC41BE
:10521000DFF89890D1ED070AD1E9002130EEC00AFD
:10522000DFF894A0254E264FDFF898C04FF07E5B44
:10523000B0EEC00A022D01D04B4503DA10EE108A01
:10524000D84507DC524505DCB24203DBB94201DC3C
:10525000614523D9B4F8008008F101081FFA88F8E5
:10526000A4F80080B8F1320F16D9B24200DA022059
:10527000524501DD40F00100B94201DC614501D930
:1052800040F00800022D01D04B4505DA10EE101A4F
:10529000594501DD40F01000BDE8F08F002121806C
:1052A000FAE70000040000200C0000200000B041DC
:1052B00090040020AC0900200000E041000088417B
:1052C0000000F0400000F0C07047000000EB8002DA
:1052D0005E4810B500EBC2005D4990ED000AB3EEE8
:1052E000081ABDEEC00A81EDC00A90ED010A81EDF9
:1052F000C60A90ED020ABDEEC00A81ED440A90EDA7
:10530000030A81ED4A0A90ED040ABDEEC00A81ED60
:10531000060A90ED050A81ED0C0A90ED060ABDEE35
:10532000C00A81ED820A90ED070A81ED880A90EDAE
:10533000080ABDEEC00A81EDFE0A90ED090A01F5EA
:10534000806080ED040A4148B3EE040AC83000EBE7
:10535000C20401F53F70D4ED011AD4ED000AFCF748
:1053600005F9D4ED031AD4ED020AB3EE061AB3EE32
:10537000010A3848FCF7FAF83548D4ED051AD4ED9F
:10538000040AB1EE081AB0EE080A1430FCF7EEF881
:105390003048D4ED071AD4ED060AB1EE001AB0EE8B
:1053A000000AF830FCF7E2F8D4ED091AD4ED080A47
:1053B000B1EE001AB0EE000A2748FCF7D7F82748EC
:1053C000B3EE040ABBEE093A80ED430AB7EE080AD1
:1053D00080ED440A9FED220ADFED222A80ED3F0A8C
:1053E000B3EE092ADFED201A9FED201ADFED200A27
:1053F0009FED200A01215430FFF7D2FE1748BBEE83
:10540000093ADFED1D2AB3EE092ADFED1C1AB0EED2
:10541000081ADFED1B0AB7EE000A0121A830FFF7DA
:10542000BFFEBDE810409FED173ADFED172A9FED54
:10543000172ADFED171AB0EE081ADFED160A9FEDF6
:10544000160A01210548FFF7ABBE00001C630008E7
:10545000900400209C05002084080020AC09002056
:1054600000000C42000048C300001643AE47E13D77
:105470008FC2F53CCDCC4C3E0000C8C20000C842F3
:105480008FC2753D000048C20000C8C300004842FA
:105490000000C843295C0F3D3333B33EFDF7BCBE6B
:1054A00010B596B028216846FBF743F8142111A8DF
:1054B000FBF73FF81C210AA8FBF73BF801204FF44B
:1054C000A02102248DE8130004900004CDE90740D8
:1054D0004FF4C01009906846FEF71AF908B172B689
:1054E000FEE70F20CDE9110400244FF48060CDE9E0
:1054F0001340022111A81594FDF7E4FF08B172B61C
:10550000FEE74FF4A1400A904FF48070CDE90E04FD
:10551000000110900AA8FDF70FFF08B172B6FEE770
:10552000FEF774F816B010BD0248016841F470012E
:105530000160704788ED00E00148FEF7B2BD000051
:105540003C030020F0B502681B4B1C4F4FF0804C11
:10555000984203D0604501D0B84203D122F07004D4
:105560004A682243164C174D174E984209D06045A1
:1055700007D0B84205D0A04203D0A84201D0B04223
:1055800003D122F44077CA683A434F6922F080027F
:105590003A4302608A68C2620A688262984205D011
:1055A000A04203D0A84201D0B04201D109690163F1
:1055B00001214161F0BD0000002C014000040040C9
:1055C00000400140004401400048014010B501F096
:1055D0001F030121046A99408C430462016A9A40C6
:1055E0001143016210BD10B501F01F030421046ACC
:1055F00099408C430462016A9A401143016210BDD4
:1056000010B5846842EA032224F47F440A4322430B
:10561000826010BD826822F070020A4342F00701E6
:1056200081607047F0B5026A22F001020262056AE9
:1056300043688269184C25F0020522400C6822F06C
:10564000030214438A68164E2A43144D154FDFF89F
:1056500058C0A84205D0B04203D0B84201D060453E
:1056600006D122F0080ECA6842EA0E0222F00402B5
:10567000A84205D0B04203D0B84201D0604505D160
:105680004D6923F440731D438B692B434360846150
:10569000496841630262F0BD8FFFFEFF002C0140AC
:1056A00000400140004401400048014030B5026A1A
:1056B00022F010020262046A42688369164D2B4090
:1056C0000D6823F4407343EA052524F020038C6819
:1056D00043EA0413114CA04207D1CC6823F08003A5
:1056E00043EA041323F0400308E00D4CA04205D028
:1056F0000C4CA04202D00C4CA04207D14C6922F4C1
:10570000406242EA84028C6942EA84024260856116
:1057100049688163036230BDFF8FFFFE002C0140AA
:1057200000400140004401400048014030B5026A99
:1057300022F480720262046A4268C369164D2B40EB
:105740000D6823F003031D4324F400738C6843EABF
:105750000423124CA04207D1CC6823F4006343EA2F
:10576000042323F4806308E00D4CA04205D00D4CC7
:10577000A04202D00C4CA04207D14C6922F4405206
:1057800042EA04128C6942EA04124260C561496827
:10579000C163036230BD00008FFFFEFF002C01409B
:1057A00000400140004401400048014030B5026A19
:1057B00022F480520262046A4268C369114D24F4E3
:1057C00000542B400D6823F4407343EA05238D6891
:1057D00044EA05340C4DA84208D00C4DA84205D02F
:1057E0000B4DA84202D00B4DA84204D14D6922F4C2
:1057F000804242EA85124260C361496801640462E2
:1058000030BD0000FF8FFFFE002C01400040014032
:10581000004401400048014030B5026A22F4803261
:105820000262046A4268436D0F4D2B400D681D43B0
:1058300024F400330C8943EA04430C4CA04208D002
:105840000B4CA04205D00B4CA04202D00A4CA04207
:1058500004D14C6922F4803242EA04224260456558
:1058600049688165036230BD8FFFFEFF002C014057
:1058700000400140004401400048014030B5026A48
:1058800022F480120262046A4268436D104D24F4CF
:1058900000142B400D6843EA05230D8944EA0554A2
:1058A0000C4DA84208D00C4DA84205D00B4DA84283
:1058B00002D00B4DA84204D14D6922F4802242EA65
:1058C0008522426043654968C165046230BD0000BD
:1058D000FF8FFFFE002C01400040014000440140CA
:1058E0000048014010B5036A046A24F00104046210
:1058F000846924F0F00444EA021423F00A020A4303
:105900008461026210BD10B5036A23F010030362C4
:105910008369046A23F4704343EA023224F0A0034B
:1059200043EA01118261016210BD90F82410C90799
:1059300006D001684A68836A22F400321A434A603A
:1059400090F82410890706D501684A68C36A22F4D2
:1059500080321A434A6090F82410490706D501683E
:105960004A68036B22F480221A434A6090F824109C
:10597000090706D501684A68436B22F400421A43BE
:105980004A6090F82410C90606D501688A68836BBE
:1059900022F480521A438A6090F82410890606D5B2
:1059A00001688A68C36B22F400521A438A6090F837
:1059B0002410490611D501684A68036C22F480124C
:1059C0001A434A60016CB1F5801F06D101684A682C
:1059D000436C22F4C0021A434A6090F8241009066E
:1059E00006D501684A68806C22F4002202434A60AE
:1059F0007047F8B500260446C0F88060FDF754F9FA
:105A00000546206800686FF07E47000708D52B46E2
:105A100000224FF400112046009700F0BBF860B957
:105A20002068006840070AD52B4600224FF4800109
:105A30002046009700F0AEF808B10320F8BD202002
:105A4000A067E067266684F874600020F8BD000057
:105A500070B5044680682169E269084361690025E0
:105A60001143226808431168444B194001431160F7
:105A700020684168E26821F4405111434160A16906
:105A8000206A084321688A6822F4306202438A60EF
:105A90003B492068884210D13A48006B10F003005F
:105AA00011D0012805D0022805D003280DD10221EC
:105AB0000CE004210AE0082108E03349884202D0C2
:105AC0003249884201D1002100E01021E3694FF4FE
:105AD00000422F484FF6EF76934227D1092941D251
