:020000040800F2
:1000000000300020F11E0008AD180008B5180008E7
:10001000B7180008B9180008BB1800080000000055
:10002000000000000000000000000000BD180008F3
:10003000BF18000800000000C1180008C31800081D
:10004000411F0008411F0008411F0008411F000810
:10005000411F0008411F0008411F0008411F000800
:10006000411F0008411F0008411F0008CD1800086B
:10007000DD180008411F0008411F0008411F00084B
:10008000411F0008411F0008411F0008411F0008D0
:10009000ED180008411F0008411F0008411F00081B
:1000A000411F0008411F0008411F0008411F0008B0
:1000B000411F0008411F000800000000411F000808
:1000C000411F00080000000000000000411F000860
:1000D00000000000411F0008411F0008411F0008E8
:1000E000411F0008411F0008000000000000000040
:1000F0000000000000000000000000000000000000
:1001000000000000000000000000000000000000EF
:100110000000000000000000FD180008411F00085A
:1001200000000000000000000000000000000000CF
:1001300000000000000000000000000000000000BF
:10014000411F0008411F000800000000411F000877
:10015000411F0008411F0008411F0008411F0008FF
:10016000411F0008411F00080000000000000000BF
:10017000000000000000000000000000000000007F
:0801800000000000411F00080F
:1001C00010B5054C237833B9044B13B10448AFF391
:1001D00000800123237010BDB8090020000000003A
:1001E00094C8000808B5034B1BB103490348AFF39B
:1001F000008008BD00000000BC09002094C8000871
:1002000081F0004102E000BF83F0004330B54FEAC7
:1002100041044FEA430594EA050F08BF90EA020F34
:100220001FBF54EA000C55EA020C7FEA645C7FEAC7
:10023000655C00F0E2804FEA5454D4EB5555B8BFEA
:100240006D420CDD2C4480EA020281EA030382EA5B
:10025000000083EA010180EA020281EA0303362DED
:1002600088BF30BD11F0004F4FEA01314FF4801CC0
:100270004CEA113102D0404261EB410113F0004FD2
:100280004FEA03334CEA133302D0524263EB430389
:1002900094EA050F00F0A780A4F10104D5F1200E27
:1002A0000DDB02FA0EFC22FA05F2801841F1000182
:1002B00003FA0EF2801843FA05F359410EE0A5F156
:1002C00020050EF1200E012A03FA0EFC28BF4CF087
:1002D000020C43FA05F3C01851EBE37101F000453D
:1002E00007D54FF0000EDCF1000C7EEB00006EEB4A
:1002F0000101B1F5801F1BD3B1F5001F0CD34908D4
:100300005FEA30004FEA3C0C04F101044FEA44522A
:1003100012F5800F80F09A80BCF1004F08BF5FEAB1
:10032000500C50F1000041EB045141EA050130BD91
:100330005FEA4C0C404141EB0101013C28BFB1F5A3
:10034000801FE9D291F0000F04BF01460020B1FAEE
:1003500081F308BF2033A3F10B03B3F120020CDAC1
:100360000C3208DD02F1140CC2F10C0201FA0CF09F
:1003700021FA02F10CE002F11402D8BFC2F1200C04
:1003800001FA02F120FA0CFCDCBF41EA0C019040BA
:10039000E41AA2BF01EB0451294330BD6FEA040403
:1003A0001F3C1CDA0C340EDC04F11404C4F12002EE
:1003B00020FA04F001FA02F340EA030021FA04F300
:1003C00045EA030130BDC4F10C04C4F1200220FA57
:1003D00002F001FA04F340EA0300294630BD21FA95
:1003E00004F0294630BD94F0000F83F4801306BF5B
:1003F00081F480110134013D4EE77FEA645C18BF4F
:100400007FEA655C29D094EA050F08BF90EA020FE5
:1004100005D054EA000C04BF1946104630BD91EADD
:10042000030F1EBF0021002030BD5FEA545C05D1E0
:100430004000494128BF41F0004130BD14F580041F
:100440003CBF01F5801130BD01F0004545F0FE4193
:1004500041F470014FF0000030BD7FEA645C1ABFC8
:10046000194610467FEA655C1CBF0B46024650EAFF
:10047000013406BF52EA033591EA030F41F400212B
:1004800030BD00BF90F0000F04BF0021704730B5B1
:100490004FF4806404F132044FF000054FF0000186
:1004A00050E700BF90F0000F04BF0021704730B547
:1004B0004FF4806404F1320410F0004548BF40421C
:1004C0004FF000013EE700BF42004FEAE2014FEA71
:1004D00031014FEA02701FBF12F07F4393F07F4F4C
:1004E00081F06051704732F07F4208BF704793F04F
:1004F0007F4F04BF41F40021704730B54FF4607462
:1005000001F0004521F000411CE700BF50EA010264
:1005100008BF704730B54FF000050AE050EA01020D
:1005200008BF704730B511F0004502D5404261EB7D
:1005300041014FF4806404F132045FEA915C3FF4BE
:10054000D8AE4FF003025FEADC0C18BF03325FEA5B
:10055000DC0C18BF033202EBDC02C2F1200300FA0C
:1005600003FC20FA02F001FA03FE40EA0E0021FA31
:1005700002F11444BDE600BF0000000000000000CE
:1005800090F800F06DE9024520F007016FF0000CD3
:1005900010F0070491F820F040F049804FF000047B
:1005A0006FF00700D1E9002391F840F000F1080056
:1005B00082FA4CF2A4FA8CF283FA4CF3A2FA8CF38E
:1005C0004BBBD1E9022382FA4CF200F10800A4FAF5
:1005D0008CF283FA4CF3A2FA8CF3E3B9D1E9042349
:1005E00082FA4CF200F10800A4FA8CF283FA4CF380
:1005F000A2FA8CF37BB9D1E9062301F1200182FA3A
:100600004CF200F10800A4FA8CF283FA4CF3A2FA3F
:100610008CF3002BC6D0002A04BF04301A4612BA4D
:10062000B2FA82F2FDE8024500EBD2007047D1E950
:10063000002304F00305C4F100004FEAC50514F0DF
:10064000040F91F840F00CFA05F562EA05021CBFB0
:1006500063EA050362464FF00004A9E700000000CA
:1006600001F0FF01102A2BDB10F0070F08D010F863
:10067000013B013A8B422DD010F0070F42B3F6D167
:10068000F0B441EA012141EA014122F007047FF080
:1006900000070023F0E80256083C85EA010586EAD7
:1006A000010685FA47F5A3FA87F586FA47F6A5FA13
:1006B00087F68EB9EED1F0BC01F0FF0102F007021F
:1006C00032B110F8013B013A83EA010313B1F8D1CA
:1006D0000020704701387047002D06BF35460338AB
:1006E000073815F0010F07D1013015F4807F02BFE4
:1006F000013015F4C03F0130F0BC0138704700BF35
:10070000844641EA000313F003036DD1403A41D31C
:1007100051F8043B40F8043B51F8043B40F8043BDB
:1007200051F8043B40F8043B51F8043B40F8043BCB
:1007300051F8043B40F8043B51F8043B40F8043BBB
:1007400051F8043B40F8043B51F8043B40F8043BAB
:1007500051F8043B40F8043B51F8043B40F8043B9B
:1007600051F8043B40F8043B51F8043B40F8043B8B
:1007700051F8043B40F8043B51F8043B40F8043B7B
:1007800051F8043B40F8043B51F8043B40F8043B6B
:10079000403ABDD2303211D351F8043B40F8043B0B
:1007A00051F8043B40F8043B51F8043B40F8043B4B
:1007B00051F8043B40F8043B103AEDD20C3205D31B
:1007C00051F8043B40F8043B043AF9D2043208D013
:1007D000D2071CBF11F8013B00F8013B01D30B8885
:1007E00003806046704700BF082A13D38B078DD063
:1007F00010F003038AD0C3F10403D21ADB071CBF35
:1008000011F8013B00F8013B80D331F8023B20F89E
:10081000023B7BE7043AD9D3013A11F8013B00F8D7
:10082000013BF9D20B7803704B7843708B7883705F
:100830006046704770B54FF0FF0C4CF4E06C1CEA5A
:1008400011541DBF1CEA135594EA0C0F95EA0C0FC6
:1008500000F0DEF82C4481EA030621EA4C5123EA39
:100860004C5350EA013518BF52EA033541F4801168
:1008700043F4801338D0A0FB02CE4FF00005E1FB1B
:1008800002E506F00042E0FB03E54FF00006E1FB65
:1008900003569CF0000F18BF4EF0010EA4F1FF04A8
:1008A000B6F5007F64F5407404D25FEA4E0E6D41E8
:1008B00046EB060642EAC62141EA55514FEAC520F9
:1008C00040EA5E504FEACE2EB4F1FD0C88BFBCF575
:1008D000E06F1ED8BEF1004F08BF5FEA500E50F126
:1008E000000041EB045170BD06F0004646EA0101EC
:1008F00040EA020081EA0301B4EB5C04C2BFD4EB1E
:100900000C0541EA045170BD41F480114FF0000E16
:10091000013C00F3AB8014F1360FDEBF002001F084
:10092000004170BDC4F10004203C35DA0C341BDCFE
:1009300004F11404C4F1200500FA05F320FA04F0D0
:1009400001FA05F240EA020001F0004221F0004104
:1009500010EBD37021FA04F642EB06015EEA430E77
:1009600008BF20EAD37070BDC4F10C04C4F12005A7
:1009700000FA04F320FA05F001FA04F240EA02005A
:1009800001F0004110EBD37041F100015EEA430E2B
:1009900008BF20EAD37070BDC4F1200500FA05F24B
:1009A0004EEA020E20FA04F301FA05F243EA0203CA
:1009B00021FA04F001F0004121FA04F220EA0200D9
:1009C00000EBD3705EEA430E08BF20EAD37070BD1F
:1009D00094F0000F0FD101F00046400041EB0101FF
:1009E00011F4801F08BF013CF7D041EA060195F0E1
:1009F000000F18BF704703F00046520043EB03039B
:100A000013F4801F08BF013DF7D043EA0603704787
:100A100094EA0C0F0CEA135518BF95EA0C0F0CD092
:100A200050EA410618BF52EA4306D1D181EA0301D8
:100A300001F000414FF0000070BD50EA410606BFD2
:100A40001046194652EA430619D094EA0C0F02D117
:100A500050EA013613D195EA0C0F05D152EA03365C
:100A60001CBF104619460AD181EA030101F000417A
:100A700041F0FE4141F470014FF0000070BD41F0C3
:100A8000FE4141F4780170BD70B54FF0FF0C4CF49D
:100A9000E06C1CEA11541DBF1CEA135594EA0C0FBC
:100AA00095EA0C0F00F0A7F8A4EB050481EA030E09
:100AB00052EA03354FEA013100F088804FEA0333F0
:100AC0004FF0805545EA131343EA12634FEA0222BE
:100AD00045EA111545EA10654FEA00260EF000417F
:100AE0009D4208BF964244F1FD0404F5407402D2D1
:100AF0005B084FEA3202B61A65EB03055B084FEA62
:100B000032024FF480104FF4002CB6EB020E75EB5E
:100B1000030E22BFB61A754640EA0C005B084FEA86
:100B20003202B6EB020E75EB030E22BFB61A754603
:100B300040EA5C005B084FEA3202B6EB020E75EB4E
:100B4000030E22BFB61A754640EA9C005B084FEAC6
:100B50003202B6EB020E75EB030E22BFB61A7546D3
:100B600040EADC0055EA060E18D04FEA051545EAC2
:100B700016754FEA06164FEAC30343EA52734FEA6B
:100B8000C2025FEA1C1CC0D111F4801F0BD141EAE4
:100B900000014FF000004FF0004CB6E711F4801F49
:100BA00004BF01430020B4F1FD0C88BFBCF5E06F29
:100BB0003FF6AFAEB5EB030C04BFB6EB020C5FEA39
:100BC000500C50F1000041EB045170BD0EF0004E8E
:100BD0004EEA113114EB5C04C2BFD4EB0C0541EAC0
:100BE000045170BD41F480114FF0000E013C90E6BD
:100BF00045EA060E8DE60CEA135594EA0C0F08BF81
:100C000095EA0C0F3FF43BAF94EA0C0F0AD150EA7F
:100C100001347FF434AF95EA0C0F7FF425AF104612
:100C200019462CE795EA0C0F06D152EA03353FF43A
:100C3000FDAE1046194622E750EA410618BF52EAB7
:100C400043067FF4C5AE50EA41047FF40DAF52EA8B
:100C500043057FF4EBAE12E74FF0FF3C06E000BF28
:100C60004FF0010C02E000BF4FF0010C4DF804CD35
:100C70004FEA410C7FEA6C5C4FEA430C18BF7FEAF5
:100C80006C5C1BD001B050EA410C0CBF52EA430C23
:100C900091EA030F02BF90EA020F0020704710F1A3
:100CA000000F91EA030F58BF994208BF90422CBF32
:100CB000D8176FEAE37040F0010070474FEA410C2B
:100CC0007FEA6C5C02D150EA013C07D14FEA430C49
:100CD0007FEA6C5CD6D152EA033CD3D05DF8040BBA
:100CE000704700BF8446104662468C4619466346EC
:100CF00000E000BF01B5FFF7B7FF002848BF10F1C3
:100D0000000F01BD4DF808EDFFF7F4FF0CBF012007
:100D100000205DF808FB00BF4DF808EDFFF7EAFF83
:100D200034BF012000205DF808FB00BF4DF808ED3E
:100D3000FFF7E0FF94BF012000205DF808FB00BF33
:100D40004DF808EDFFF7CEFF94BF012000205DF8BD
:100D500008FB00BF4DF808EDFFF7C4FF34BF0120CA
:100D600000205DF808FB00BF4FEA410C7FEA6C5C95
:100D700002D150EA013C0AD14FEA430C7FEA6C5C95
:100D800002D152EA033C02D14FF0000070474FF00D
:100D9000010070474FEA410212F5001215D211D539
:100DA0006FF47873B3EB625212D94FEAC12343F068
:100DB000004343EA505311F0004F23FA02F018BFEA
:100DC000404270474FF00000704750EA013005D1B3
:100DD00011F0004008BF6FF0004070474FF0000076
:100DE000704700BF53B94AB9002908BF00281CBF8B
:100DF0004FF0FF314FF0FF3000F074B9ADF1080C47
:100E00006DE904CE00F006F8DDF804E0DDE9022328
:100E100004B070472DE9F047089D04468E46002B2C
:100E20004DD18A42944669D9B2FA82F252B101FA9E
:100E300002F3C2F1200120FA01F10CFA02FC41EAAE
:100E4000030E94404FEA1C48210CBEFBF8F61FFA33
:100E50008CF708FB16E341EA034306FB07F19942CE
:100E60000AD91CEB030306F1FF3080F01F81994281
:100E700040F21C81023E63445B1AA4B2B3FBF8F05B
:100E800008FB103344EA034400FB07F7A7420AD9E2
:100E90001CEB040400F1FF3380F00A81A74240F20A
:100EA00007816444023840EA0640E41B00261DB175
:100EB000D4400023C5E900433146BDE8F0878B42AA
:100EC00009D9002D00F0EF800026C5E90001304669
:100ED0003146BDE8F087B3FA83F6002E4AD18B4243
:100EE00002D3824200F2F980841A61EB03030120ED
:100EF0009E46002DE0D0C5E9004EDDE702B9FFDED9
:100F0000B2FA82F2002A40F09280A1EB0C014FEA83
:100F10001C471FFA8CFE0126200CB1FBF7F307FBE0
:100F2000131140EA01410EFB03F0884208D91CEB83
:100F3000010103F1FF3802D2884200F2CB80434620
:100F4000091AA4B2B1FBF7F007FB101144EA0144FF
:100F50000EFB00FEA64508D91CEB040400F1FF318E
:100F600002D2A64500F2BB800846A4EB0E0440EA7C
:100F700003409CE7C6F12007B34022FA07FC4CEA85
:100F8000030C20FA07F401FA06F31C43F9404FEA78
:100F90001C4900FA06F3B1FBF9F8200C1FFA8CFE8D
:100FA00009FB181140EA014108FB0EF0884202FAE1
:100FB00006F20BD91CEB010108F1FF3A80F08880A2
:100FC000884240F28580A8F102086144091AA4B25F
:100FD000B1FBF9F009FB101144EA014100FB0EFEE0
:100FE0008E4508D91CEB010100F1FF346CD28E450F
:100FF0006AD90238614440EA0840A0FB0294A1EBA0
:101000000E01A142C846A64656D353D05DB1B3EBFC
:10101000080261EB0E0101FA07F722FA06F3F1402C
:101020001F43C5E9007100263146BDE8F087C2F1D3
:101030002003D8400CFA02FC21FA03F3914001434B
:101040004FEA1C471FFA8CFEB3FBF7F007FB103684
:101050000B0C43EA064300FB0EF69E4204FA02F430
:1010600008D91CEB030300F1FF382FD29E422DD983
:10107000023863449B1B89B2B3FBF7F607FB1633B8
:1010800041EA034106FB0EF38B4208D91CEB010138
:1010900006F1FF3816D28B4214D9023E6144C91AB8
:1010A00046EA004638E72E46284605E70646E3E6C8
:1010B0001846F8E64B45A9D2B9EB020864EB0C0ED2
:1010C0000138A3E74646EAE7204694E74046D1E7E1
:1010D000D0467BE7023B614432E7304609E764448F
:1010E000023842E7704700BF00B58BB0002307937A
:1010F0000893099301930293039304930593069332
:1011000027484FF0A04202604360836001220261E1
:10111000427680F82030C3628262C3600321C161DD
:1011200080F83020042242610376436301F028F8FE
:1011300038BB0023079307A9194801F0D3FB18BB5C
:101140000123019302930023049307220392059342
:10115000069301A9124801F003FAC0B902230193D2
:10116000029301A90E4801F0FBF998B903230193FA
:10117000029301A90A4801F0F3F970B90BB05DF8C8
:1011800004FB00F029FBD4E700F026FBD8E700F0D1
:1011900023FBE3E700F020FBE8E700F01DFBEDE7B1
:1011A000D809002000B587B0002300930193029373
:1011B0000393049305931E481E4A026043608360B4
:1011C00001220261427680F82030C3628262C360ED
:1011D0000221C16180F8302004224261037643631A
:1011E00000F0CEFFD0B90D2300930123019300231B
:1011F0000393072202920493059369460C4801F079
:10120000AFF970B90E230093022301936946084891
:1012100001F0A6F940B907B05DF804FB00F0DCFA74
:10122000E1E700F0D9FAEDE700F0D6FAF3E700BF06
:10123000280A00200001005010B58AB0044600239F
:10124000059306930793089309930368B3F1A04F9E
:1012500004D0434A934242D00AB010BD414A1368B9
:1012600001331360012B2CD03F4B5A6942F40032FA
:101270005A615B6903F400330293029B07230593D1
:101280000323069305A94FF0904002F0C5F83748B4
:10129000374B03600023436083608023C3604FF4B7
:1012A000807303614FF400634361202383614FF433
:1012B0004053C36101F0F4FF70B92C4BA3635C622F
:1012C000CAE7294B5A6942F080525A615B6903F0C0
:1012D00080530193019BC7E700F07EFAEDE7214AB6
:1012E000136801331360012B2CD01F4B5A6942F451
:1012F00080225A615B6903F480230493049B4FF4BA
:10130000A04305930323069305A91A4802F084F825
:1013100019481A4B03600023436083608023C36035
:101320004FF4807303614FF40063436120238361B2
:101330004FF44053C36101F0B3FF70B90E4BA36388
:101340005C6289E7084B5A6942F080525A615B69D6
:1013500003F080530393039BC7E700F03DFAEDE7EA
:1013600000010050D409002000100240780A00203B
:101370000800024000040048BC0A00201C00024093
:1013800008B50D480D4B03600223436000238360C2
:10139000C3604FF4002202614FF4E0024261037621
:1013A00043768376C3760377437701F027FB00B952
:1013B00008BD00F011FAFBE7000B002000640040BC
:1013C00000B589B000230393049305930693079314
:1013D0000268184B9A4202D009B05DF804FB03F58D
:1013E000D633DA6942F00072DA61DA6902F000722B
:1013F0000192019A5A6942F480225A615B6903F4AE
:1014000080230293029B4FF44073039302230493BF
:10141000032306930923079303A9074801F0FCFF60
:1014200000221146142001F0B9FE142001F0EEFE56
:10143000D2E700BF006400400004004800B583B05C
:101440000E4B5A6942F001025A615B6903F00103D5
:101450000193019B002211460B2001F09FFE0B20FF
:1014600001F0D4FE002211460C2001F097FE0C2062
:1014700001F0CCFE03B05DF804FB00BF0010024099
:1014800084B0134B5A6942F400225A615A6902F43B
:1014900000220092009A5A6942F480025A615A6905
:1014A00002F480020192019A5A6942F400325A61B0
:1014B0005A6902F400320292029A5A6942F4802276
:1014C0005A615B6903F480230393039B04B0704764
:1014D000001002400268094B9A4200D0704782B067
:1014E00003F51C439A6942F000529A619B6903F02C
:1014F00000530193019B02B0704700BF007401408C
:1015000000B587B0002301930293039304930593DE
:101510000268104B9A4202D007B05DF804FB03F555
:101520001C435A6942F400325A615B6903F4003388
:101530000093009B4FF470630193022302930323F3
:1015400004930D23059301A94FF0904001F064FF2F
:10155000E2E700BF0074014010B5AEB000242A9449
:101560002B942C942D94542221460DEB020005F06F
:101570002FF9129413941494242221460DEB0200A7
:1015800005F026F92022214601A805F021F990480E
:10159000904B03604460846002F0D4F9002840F06E
:1015A000DE800C218A4802F037FA002840F0DA8009
:1015B0000A21874802F069FA002840F0D6804FF4EB
:1015C0007A732A9300232B9304232C9308232D93BF
:1015D0002AAA05217E4802F07AFA002840F0C88045
:1015E00000231593169317931893012219921A93B7
:1015F0001B931C931D931E931F932093219315AA55
:101600000521734802F07CFA002840F0B4804FF4C2
:10161000FA73129312AB012205216D4802F0FCFA15
:10162000002840F0AB8012AB02220521684802F08E
:10163000F3FA002840F0A58012AB0422052164488B
:1016400002F0EAFA002840F09F8012AB0822052140
:101650005F4802F0E1FA002840F099802AAA0021B0
:101660005B4802F034FA002840F094800021159184
:1016700016914FF000631E934FF000532193229177
:10168000239124914FF480732593269127912891DB
:10169000299115AA4E4802F033FA00287DD115AAE7
:1016A00001214B4802F02CFA002879D14FF4406315
:1016B00009930F230A9300210B910C910D910E9326
:1016C0000F911091119109AA414802F051FA002896
:1016D00069D109AA01213E4802F04AFA002865D1E1
:1016E000002101914FF4807302934FF40073039330
:1016F0000491059106910791089101AB01223448AC
:1017000002F06BFB002854D14FF4806302934FF436
:101710000063039301AB042201212D4802F05DFB1D
:10172000002849D100210291039101AB02222848EF
:1017300002F053FB002842D101AB082201212448CA
:1017400002F04BFB00283DD12AAA0121204802F0DB
:10175000BEF9D0BB1E48FFF7D3FE2EB010BD00F07F
:101760003BF81EE700F038F822E700F035F826E7EE
:1017700000F032F834E700F02FF848E700F02CF8DA
:1017800051E700F029F857E700F026F85DE700F090
:1017900023F863E700F020F868E700F01DF87EE723
:1017A00000F01AF882E700F017F892E700F014F85A
:1017B00096E700F011F8A7E700F00EF8B2E700F0A6
:1017C0000BF8B9E700F008F8BEE700F005F8C1E74C
:1017D000280B00200074014072B6FEE700B597B0F8
:1017E000282200210CA804F0F3FF0023079308939C
:1017F00009930A930B930093019302930393049329
:101800000593069301220C924FF4A0230D9302231B
:101810000E93109213934FF4803314934FF4C0132C
:1018200015930CA802F02CFB08BB0F230793022191
:101830000891002309934FF480620A920B9307A842
:1018400002F084FEA8B94FF4A14300934FF48073D3
:101850000493002305934FF480530693684602F0E7
:101860008DFF40B902F026FE17B05DF804FBFFF7CC
:10187000B3FFFFF7B1FFFFF7AFFF000082B00A4BE5
:101880009A6942F001029A619A6902F0010200929B
:10189000009ADA6942F08052DA61DB6903F0805322
:1018A0000193019B02B070470010024008B502F09E
:1018B00055FFFEE7FEE7FEE7FEE7FEE770477047ED
:1018C000704708B500F076FB08BD000008B5024877
:1018D00001F048FD08BD00BF780A002008B50248A5
:1018E00001F040FD08BD00BFBC0A002008B5024859
:1018F00001F01CFB08BD00BF000B002008B502482A
:1019000003F096F908BD00BFEC0C002001207047E1
:1019100008B504F033FF162303604FF0FF3008BD15
:1019200008B54FF0FF31FFF7F3FFFEE770B50C4647
:101930001646002506E0AFF30080214601F8010BB2
:1019400001350C46B542F6DB304670BD70B50C462D
:101950001646002504E014F8010BAFF300800135B2
:10196000B542F8DB304670BD4FF0FF3070474FF4A2
:1019700000534B60002070470120704700207047E3
:1019800010B503460C4A0D490D48006840B10C489B
:1019900000680344521A934206D8094A136010BDE6
:1019A0000748084C0460F2E704F0E8FE0C230360EB
:1019B0004FF0FF30F3E700BF0030002000040000CC
:1019C000040C002030120020034AD2F8883043F47F
:1019D0007003C2F88830704700ED00E000B585B0B4
:1019E00000230193029303930E480F4A026047229B
:1019F000426083603122C260836103F02FFA50B9E4
:101A000000230193039301A9064803F023FD28B99D
:101A100005B05DF804FBFFF7DFFEF1E7FFF7DCFE42
:101A2000F6E700BFEC0C00200010004000B583B0CA
:101A30000368134A934205D0124A93420DD003B073
:101A40005DF804FB104B9A6942F400629A619B694D
:101A500003F400630093009BF1E70B4BDA6942F05B
:101A60001002DA61DB6903F010030193019B00228D
:101A70000121362001F092FB362001F0C7FBDEE7A2
:101A8000002C0140001000400010024082B00368AA
:101A9000B3F1804F04D00E4A93420DD002B070478C
:101AA00003F50433DA6942F00102DA61DB6903F01D
:101AB00001030093009BF1E7064BDA6942F0020252
:101AC000DA61DB6903F002030193019BE6E700BFE3
:101AD000000400400010024000B589B000230393C9
:101AE00004930593069307930368274A934208D00B
:101AF000B3F1804F1BD0254A93422FD009B05DF837
:101B000004FB234B5A6942F400225A615B6903F4D7
:101B100000230093009B4FF400530393022304938C
:101B20000423079303A91B4801F076FCE6E703F5BD
:101B300004335A6942F400325A615B6903F400339A
:101B40000193019B20230393022304930123079312
:101B500003A94FF0904001F05FFCCFE70C4B5A69AE
:101B600042F400325A615B6903F400330293029B32
:101B70005023039302230493079303A94FF090404B
:101B800001F04AFCBAE700BF002C0140000400400D
:101B9000001002400008004810B59AB000241694C6
:101BA0001794189419941394149415940C940D94F8
:101BB0000E940F941094119412942C22214601A893
:101BC00004F006FE3048314B036040F2CF234360FF
:101BD00084606323C36004614461846103F03EF95F
:101BE00000283FD14FF48053169316A9264803F0DE
:101BF0007FFA002839D1244803F060F9002837D152
:101C0000002313931493159313A91F4803F022FC88
:101C1000002830D160230C9300220D920E920F9277
:101C20001092119212920CA9174803F0B7F928BB31
:101C30000023019302930393049305934FF40052FE
:101C40000692079308934FF0007209920A930B9340
:101C500001A90D4803F03AFC98B90B48FFF73CFF87
:101C60001AB010BDFFF7B8FDBCE7FFF7B5FDC2E73E
:101C7000FFF7B2FDC4E7FFF7AFFDCBE7FFF7ACFD21
:101C8000D6E7FFF7A9FDE8E7080C0020002C01408B
:101C900000B58BB000230793089309930093019339
:101CA0000293039304930593069318484FF08042E0
:101CB000026040F2CF22426083606322C26003610F
:101CC000836103F0FBF8C0B900230793099307A9C8
:101CD0000E4803F0BFFB98B96023009300220192E5
:101CE000029204926946094803F058F958B9074826
:101CF000FFF7F2FE0BB05DF804FBFFF76DFDE3E7C5
:101D0000FFF76AFDE8E7FFF767FDF0E7540C0020F6
:101D100000B58BB0002307930893099300930193B8
:101D2000029303930493059306931C481C4A026094
:101D300040F2CF22426083606322C260036183610C
:101D400003F0BCF8F0B900230793099307A91348DF
:101D500003F080FBC8B96023009300220192029235
:101D6000049269460D4803F019F988B904226946BE
:101D70000A4803F013F970B90848FFF7ADFE0BB03D
:101D80005DF804FBFFF728FDDDE7FFF725FDE2E73F
:101D9000FFF722FDEAE7FFF71FFDEDE7A00C0020AB
:101DA0000004004008B50B480B4B03604FF4E133CF
:101DB000436000238360C36003610C22426183613E
:101DC000C3610362436203F0EEFD00B908BDFFF793
:101DD00003FDFBE7380D00200044004008B50B4828
:101DE0000B4B03604FF4E133436000238360C36017
:101DF00003610C2242618361C3610362436203F0A9
:101E0000D2FD00B908BDFFF7E7FCFBE7BC0D0020E1
:101E100000480040F0B58BB000230593069307936C
:101E20000893099303682E4A934204D02D4A9342A3
:101E300035D00BB0F0BD2C4BDA6942F40032DA61D8
:101E4000DA6902F400320092009A5A6942F40032D0
:101E50005A615A6902F400320192019A5A6942F4B5
:101E600080225A615B6903F480230293029B082756
:101E7000059702260696032508950724099405A9C7
:101E80004FF0904001F0C8FA05970696002307939B
:101E90000895099405A9154801F0BEFAC9E7124B47
:101EA000DA6942F48022DA61DA6902F4802203926C
:101EB000039A5A6942F480225A615B6903F48023D1
:101EC0000493049B4FF4406305930223069303237A
:101ED00008930723099305A9044801F09DFAA8E790
:101EE0000044004000480040001002400004004848
:101EF000DFF834D00D480E490E4A002302E0D458D2
:101F0000C4500433C4188C42F9D30B4A0B4C002341
:101F100001E013600432A242FBD3FFF755FD04F049
:101F200033FC04F09FFAFEE70030002000000020A0
:101F3000B8090020FCCE0008B809002030120020AB
:101F4000FEE7000010B504460E4B18784FF47A7384
:101F5000B3FBF0F30C4A1068B0FBF3F001F064F946
:101F600068B90F2C01D901200AE0002221464FF068
:101F7000FF3001F013F9054B1C60002000E0012048
:101F800010BD00BF04000020000000200800002059
:101F900008B5074A136843F010031360032001F0EB
:101FA000EBF80220FFF7CEFFFFF768FC002008BD2A
:101FB00000200240034A1168034B1B780B44136056
:101FC000704700BF400E002004000020014B18683D
:101FD000704700BF400E002038B50446FFF7F6FFFB
:101FE0000546B4F1FF3F02D0044B1B781C44FFF7B9
:101FF000EDFF401BA042FAD338BD00BF0400002013
:1020000070477047704738B50268936803F0030360
:10201000012B01D0002038BD0446136813F0010FD6
:1020200033D0936803F00D03012B09D0036C43F008
:1020300010030364436C43F0010343640120EAE7A7
:10204000936843F002039360036803221A60FFF76A
:10205000BDFF054623689B6813F0010F13D0FFF7FF
:10206000B5FF401B0228F5D923689B6813F0010FC8
:10207000F0D0236C43F010032364636C43F001033E
:1020800063640120C7E70020C5E70020C3E7000024
:1020900038B504460268936803F00303012B0DD0A2
:1020A00091681A4B19420FD0236C43F0100323643C
:1020B000636C43F001036364012038BD136813F0BF
:1020C000010FEDD00020F8E7936843F0010393601F
:1020D000FFF77CFF054623681B6813F0010F13D13F
:1020E000FFF774FF431B022BF5D923681B6813F01D
:1020F000010FF0D1236C43F010032364636C43F0B1
:10210000010363640120D8E70020D6E73F00008088
:1021100008B5406A036C43F040030364436C43F02A
:1021200004034364FFF76EFF08BD08B5406AFFF77C
:1021300068FF08BD08B5436A1A6C12F0500F1AD137
:102140001A6C42F400721A641A68D26812F4406F72
:102150000DD15A7E5AB91A6C22F480721A641A6C24
:1021600012F4805F03D11A6C42F001021A6418461F
:10217000FFF746FF08BD9B6B1B6B9847FAE7000013
:1021800030B597B000230193002800F0F780044693
:10219000036C13F0100F52D1036CABB10020236815
:1021A0009A6812F0805F03D09B6813F0005F47D0FD
:1021B000236C23F0120343F010032364636C43F099
:1021C0000103636401203BE04364C364836480F8DB
:1021D0003C30FFF731F823689B6813F0805F01D033
:1021E0000020DCE72046FFF70EFF236C13F0100FF2
:1021F000D5D10028D3D1236C23F4885323F00203D4
:1022000043F0020323642268936823F040539360F1
:102210002268936843F080539360594B1B68594A76
:10222000A2FB03239B0C03EB83035B00019302E0FF
:10223000019B013B0193019B002BF9D1AFE70020EB
:10224000236C13F0100F40F09080002840F08D8038
:102250002368996811F0040140F08780226C22F411
:10226000817242F002022264B3F1A04F54D04FF0C9
:10227000A04202929A6802F00302012A4FD0029B08
:1022800023B19A6802F00302012A4DD03E4A9368B6
:1022900023F4403365682B439360627E5303656B80
:1022A000012D01D04FF480510B43E1680B43A1682D
:1022B0000B4394F8201001293BD0A26A012A02D0D6
:1022C000E16A0A4313432268916811F00C0F0CD1A4
:1022D000D16821F4804121F00201D160217E94F87F
:1022E0003020520042EA813213432168CD68274AE8
:1022F0002A401343CB602369012B2DD02268136B36
:1023000023F00F03136300236364236C23F00303A0
:1023100043F0010323642FE01D4A0292AAE71B68E1
:1023200013F0010FB9D1AAE71B6813F0010FB4D164
:10233000ACE732B9626A013A43EA424343F480337C
:10234000BBE7226C22F0220242F020022264626C7F
:1023500042F001026264B0E721680B6B23F00F03C7
:10236000E269013A13430B63CDE7236C23F01203B8
:1023700043F010032364012017B030BD0120FBE7B8
:102380000000002083DE1B430003005007C0F0FF65
:1023900000010050F8B504460068806810F0040F92
:1023A00040F083800E46154694F83C30012B7ED0D9
:1023B000012384F83C303F4B9B6813F01F0F05D07E
:1023C000002384F83C3001273846F8BD2046FFF74B
:1023D0005FFE0746002864D1236C23F4706323F06A
:1023E000010343F480732364324B9B6813F01F0F87
:1023F00017D02268B2F1A04F13D0236C43F480139E
:1024000023642D4B9A421BD14FF0A043DB6813F09D
:10241000007F15D0236C23F4405343F4805323648E
:102420000EE0236C23F4801323642368DB6813F02D
:10243000007F05D0236C23F4405343F4805323647E
:10244000236C13F4805F29D0636C23F0060363646C
:10245000002384F83C30A36B184A9A62A36B184A95
:10246000DA62A36B174A1A6323681C221A60226877
:10247000536843F0100353602268D36843F00103AC
:10248000D36021682B4632464031A06B00F030FF0C
:102490002268936843F00403936095E70023636424
:1024A000D6E7002384F83C308EE702278CE702272A
:1024B0008AE700BF000300500001005035210008EA
:1024C0002B2100081121000870B590F83C30012B39
:1024D00043D004460D46012380F83C30FFF793FDBE
:1024E0000646002834D1012323642268936823F030
:1024F00080439360012D1FD02268936843F000430E
:102500009360FFF763FD054623689B68002B19DA8B
:10251000FFF75CFD431B0A2BF6D923689B68002B51
:10252000F2DA236C23F0120343F010032364002338
:1025300084F83C3001260EE02268936843F0804323
:102540009360D9E7236C23F0030343F00103236472
:10255000002384F83C30304670BD0226FBE70000C3
:1025600030B496B00022019290F83C20012A00F08D
:10257000AF810346012280F83C200068826812F097
:10258000040F40F09A814A68042A37D8046B02EBA2
:10259000420252004FF01F0C0CFA02FC24EA0C0C11
:1025A0000C6804FA02F24CEA0202026318688268BC
:1025B00012F00C0F72D10A68092A56D9846902EB0D
:1025C00042021E3A4FF0070C0CFA02FC24EA0C04FB
:1025D0008D6805FA02F22243826148691C68E2684C
:1025E000C2F3C102520000FA02F20869013803285E
:1025F00000F29380DFE800F048707B86092A10D84B
:10260000446B02EB420252001E3A4FF01F0C0CFAD0
:1026100002FC24EA0C040D6805FA02F2224342632C
:10262000C4E70E2A10D8846B02EB420252003C3AF7
:102630004FF01F0C0CFA02FC24EA0C040D6805FA9A
:1026400002F222438263B1E7C46B02EB4202520002
:102650005A3A4FF01F0C0CFA02FC24EA0C040D68E5
:1026600005FA02F22243C263A0E7446902EB420288
:102670004FF0070C0CFA02FC24EA0C048D6805FAF2
:1026800002F222434261A8E7256E924828400D6875
:1026900042EA8562104340F0004020661868826874
:1026A00002F00302012A68D0CA68012A6BD0D0F870
:1026B000B02001240D68AC4022EA0402C0F8B0202A
:1026C0000A68102A00F08880112A00F0A680122AD9
:1026D00000F0A9800020F5E0656E7E4828400D6876
:1026E00042EA8562104340F000406066D6E7A56E7E
:1026F000784828400D6842EA8562104340F0004067
:10270000A066CBE7E56E734828400D6842EA856213
:10271000024342F00042E266C0E7226E02F0F84255
:102720000868B2EB806F03D1226E22F0004222666D
:102730001A68506E00F0F8400C68B0EB846F03D15B
:10274000506E20F0004050661A68906E00F0F8401D
:102750000C68B0EB846F03D1906E20F0004090665F
:102760001A68D06E00F0F8400C68B0EB846F95D119
:10277000D06E20F00040D06690E7026812F0010FA2
:1027800092D000209EE0D0F8B02001240D68AC402B
:102790002243C0F8B0200A68092A0ED91D68A8692A
:1027A00002EB42021B3A0724944020EA04008C68A2
:1027B00004FA02F20243AA6182E71D6868690132E5
:1027C00002EB42020724944020EA04008C6804FAD9
:1027D00002F202436A6173E73F49896811F4000F0E
:1027E0007FF472AF1868B0F1A04F23D04FF0A04132
:1027F0000291816801F0030101291ED0029921B1E3
:102800008C6804F00304012C21D0102A24D0112A52
:1028100042D0122A4AD0002054E02F49896811F092
:10282000807FDFD053E72C49896811F4800FD9D01D
:10283000002047E029490291DBE7016811F0010F10
:10284000DCD01A6C42F020021A6401203AE00968D8
:1028500011F0010FF5D1D8E7B0F1A04FD7D11E4943
:102860008A6842F400028A601D4A1268A1F14E6132
:10287000A1F58421A1F27D41A1FB0212920C02EB91
:1028800082025200019202E0019A013A0192019AF9
:10289000002AF9D1002015E0B0F1A04FB9D10E49BE
:1028A0008A6842F080728A6000200BE00A498A68D8
:1028B00042F480028A60002004E01A6C42F0200298
:1028C0001A640120002283F83C2016B030BC704707
:1028D0000220FAE700F0FF830003005000010050DF
:1028E0000000002030B494B003460268B2F1A04F5B
:1028F0003DD04FF0A04000900098002876D093F88B
:102900003CC0BCF1010F73D04FF0010C83F83CC008
:10291000926812F0040F5ED1826812F0040F5AD14F
:102920000A68002A32D0334CA26822F4604293F83D
:1029300030C04D6845EA4C3C42EA0C02A2601C687B
:10294000A26802F00302012A14D0826802F0030296
:10295000012A15D0274CA26822F4716222F00F02DE
:102960000868896801430A43A260002038E02248D1
:102970000090C1E7226812F0010FE6D000202FE09E
:10298000026812F0010FE5D0002029E019498A6899
:1029900022F460428A6019688A6802F00302012A00
:1029A0000DD0826802F00302012A0ED011498A6814
:1029B00022F4716222F00F028A60002010E00A689F
:1029C00012F0010FEDD000200AE0026812F0010FB2
:1029D000ECD0002004E01A6C42F020021A640120BE
:1029E000002283F83C2014B030BC70470120FAE785
:1029F0000220F8E70003005000010050002800F01A
:102A0000A18038B5044690F82030D3B1226813680D
:102A100043F001031360FFF7D9FA054623685A68AB
:102A200012F0010F10D1FFF7D1FA401B0A28F5D997
:102A3000636A43F400336362052384F82030012085
:102A400038BDFEF7BDFCE1E71A6822F002021A6009
:102A5000FFF7BCFA054623685A6812F0020F0DD042
:102A6000FFF7B4FA401B0A28F5D9636A43F4003330
:102A70006362052384F820300120E1E7227E012AE9
:102A80003DD01A6822F080021A60637E012B3BD091
:102A90002268136823F040031360A37E012B39D012
:102AA0002268136823F020031360E37E012B37D0E4
:102AB0002268136843F010031360237F012B35D085
:102AC0002268136823F008031360637F012B33D05F
:102AD0002268136823F004031360A368E2681343B9
:102AE00022691343626913436268013A2168134300
:102AF000CB6100206062012384F82030A0E71A68CF
:102B000042F080021A60C0E72268136843F0400375
:102B10001360C2E72268136843F020031360C4E720
:102B20002268136823F010031360C6E72268136855
:102B300043F008031360C8E72268136843F00403F6
:102B40001360CAE701207047026890F82030013B0B
:102B5000DBB2012B05D9436A43F480234362012091
:102B6000704730B4D2F8003243F00103C2F80032AB
:102B70004B6903F01F03012000FA03F3D2F81C0293
:102B80006FEA030C20EA0300C2F81C02C869B0B95E
:102B9000D2F80C020CEA0000C2F80C028C884869DA
:102BA000CD6844EA0544483042F830400C88486912
:102BB0008D6844EA0544483002EBC0004460C869AF
:102BC00001281BD0886980BBD2F804020CEA0000FF
:102BD000C2F80402086970BBD2F814020CEA0000C3
:102BE000C2F81402096A01292BD0D2F8003223F06E
:102BF0000103C2F80032002030BC7047D2F80C024A
:102C00001843C2F80C028C8848690D6844EA0544F0
:102C1000483042F830408C8948698D6844EA054460
:102C2000483002EBC0004460CCE7D2F804021843FD
:102C3000C2F80402CEE7D2F814021843C2F8140214
:102C4000D0E7D2F81C120B43C2F81C32CDE770B5A6
:102C5000044690F82050EDB2012D06D0436A43F4AB
:102C6000002343620125284670BD022380F82030EE
:102C70000268136823F001031360FFF7A7F9064603
:102C800023685B6813F0010F0CD0FFF79FF9831BDB
:102C90000A2BF5D9636A43F400336362052384F891
:102CA0002030E0E700256562DDE730B590F820C010
:102CB0000468A4680CF1FF3C5FFA8CFCBCF1010FC6
:102CC0006BD814F0E05F62D0C4F3016CBCF1020F6A
:102CD00005D9436A43F400034362012062E0012402
:102CE00004FA0CF41C608B68002B3DD10D68CB6896
:102CF000046843EA45550CF118031B01E5500368CD
:102D00000C690CF1180E03EB0E135C600B7D012BAC
:102D100035D0D17993791B0443EA0163517943EAB1
:102D2000012314790168234301EB0C11C1F88C31A4
:102D3000D17893781B0443EA0163517843EA012375
:102D4000117802680B4302EB0C12C2F8883102685A
:102D50000CF1180C4FEA0C1C52F80C3043F0010334
:102D600042F80C3000201DE04C6843EAC403CC68F4
:102D700023430CF11804240105682B51BFE70368B5
:102D800003EB0E13596841F480715960C1E7436A3F
:102D900043F400134362012004E0436A43F48023B8
:102DA0004362012030BD90F820C00CF1FF3C5FFA77
:102DB0008CFCBCF1010F00F2958030B451B904686D
:102DC000E46814F0030F10D1436A43F40013436224
:102DD000012077E00468246914F0030F05D1436AE9
:102DE00043F40013436201206CE001F11B04240151
:102DF00005682C5904F004049460002C64D101F19E
:102E00001B04240105682C59640D1460046801F149
:102E10001B0C4FEA0C1C54F80C4004F00204D46064
:102E200004686444646804F00F0414610468644432
:102E30006468C4F307249461046864446468240CDF
:102E40005461026802EB0112D2F8B8211A700268CC
:102E500002EB0112D2F8B821C2F307225A700268BD
:102E600002EB0112D2F8B821C2F307429A7002684D
:102E700002EB0112D2F8B821120EDA70026802EBEE
:102E80000112D2F8BC211A71026802EB0112D2F8C9
:102E9000BC21C2F307225A71026802EB0112D2F878
:102EA000BC21C2F307429A71026802EB0112D2F808
:102EB000BC21120EDA7179B90268D36843F020039D
:102EC000D360002030BC704701F11B042401056869
:102ED0002C59E408546099E70268136943F0200311
:102EE0001361EEE7436A43F4802343620120704795
:102EF00090F82030013BDBB2012B05D9436A43F443
:102F0000802343620120704702685369194351616D
:102F10000020704770477047704770477047704790
:102F20007047704770477047704770472DE9F84FFA
:102F3000054603685C69D3F804809F68D3F80CB039
:102F4000D3F810A0D3F8189014F001063BD017F076
:102F5000010616D001229A6017F0020F08D117F06F
:102F6000040F0CD117F0080606D04FF4805608E085
:102F7000FFF7D0FF002604E0FFF7CFFF01E04FF49A
:102F8000006617F4807F0DD02B684FF480729A6032
:102F900017F4007F40F0868017F4806F00F0868081
:102FA00046F4005617F4803F0DD02B684FF4803262
:102FB0009A6017F4003F40F0838017F4802F00F0F0
:102FC000838046F4004614F0080F07D01BF0100F62
:102FD00004D046F400762B681022DA6014F0040F57
:102FE00002D01BF0080F79D114F0020F04D02B6827
:102FF000DB6813F0030F78D114F0400F07D01AF0FC
:10300000100F04D046F480662B6810221A6114F069
:10301000200F02D01AF0080F6BD114F0100F04D05B
:103020002B681B6913F0030F6AD114F4003F02D020
:1030300018F0100F68D114F4803F02D018F0080F78
:1030400069D114F4004F7AD018F0040F74D014F43E
:10305000807F04D019F0010F01D046F0010614F46E
:10306000007F04D019F0020F01D046F0020614F4DC
:10307000806F04D019F0040F01D046F0040614F458
:10308000006F59D019F0700956D0B9F1400F65D0D2
:1030900058D8B9F1200F5ED0B9F1300F42D146F0C7
:1030A000200644E02846FFF736FF7BE717F4006F61
:1030B00002D046F4804675E72846FFF72FFF71E7F8
:1030C0002846FFF729FF7EE717F4002F02D046F4C9
:1030D000803678E72846FFF722FF74E72B6808223E
:1030E000DA602846FFF71CFF7EE7284603F06AFAFD
:1030F00082E72B6808221A612846FFF713FF8CE746
:103100002846FFF70EFF90E72B6810225A602846EA
:10311000FFF709FF8FE72B6808225A602846FFF760
:1031200003FF8EE7B9F1100F01D146F008062A68B7
:10313000936923F0700393612B6804225A609EB94F
:10314000BDE8F88FB9F1500F0BD0B9F1600FEED197
:1031500046F48076EBE746F01006E8E746F04006D6
:10316000E5E746F08006E2E76B6A1E436E6228469A
:10317000FFF7DBFEE4E70000074AD36823F4E063CF
:103180001B041B0C000200F4E060034343F0BF6328
:1031900043F40033D360704700ED00E000B5194BF5
:1031A000DB68C3F30223C3F1070CBCF1040F28BF93
:1031B0004FF0040C03F1040EBEF1060F18D9033BC7
:1031C0004FF0FF3E0EFA0CFC21EA0C0199400EFA7A
:1031D00003F322EA0303194300280BDB0901C9B2F8
:1031E00000F1604000F5614080F800135DF804FBD9
:1031F0000023E5E700F00F000901C9B2024B1954A2
:10320000F4E700BF00ED00E014ED00E0002807DB6C
:1032100000F01F02400901239340024A42F8203087
:10322000704700BF00E100E00138B0F1807F0BD2B1
:103230004FF0E0235861054AF02182F82310002066
:10324000986107221A6170470120704700ED00E085
:1032500030B40124056CAC40C56B6C6004686360DD
:103260004368102B05D0036899600368DA6030BCAE
:10327000704703689A600368D960F8E70268054BF5
:103280001344054AA2FB03231B099B000364034B61
:10329000C3637047F8FFFDBFCDCCCCCC000002402B
:1032A00020B310B50446022380F8213001680A6873
:1032B00022F47F5222F03002436880680343E068C2
:1032C00003432069034360690343A0690343E06942
:1032D000034313430B602046FFF7D0FF0020A06399
:1032E000012384F8213084F8200010BD01207047AC
:1032F00038B5044690F82000012831D0012084F828
:10330000200094F82100012804D0002384F8203004
:10331000022038BD022084F821000020A063256827
:10332000286820F0010028602046FFF791FFE36A3B
:103330005BB12268136843F00E03136022681368C0
:1033400043F0010313600020E3E72268136843F0B1
:103350000A0313602268136823F004031360EDE787
:103360000220D6E738B5C36B1A6804682568016C7B
:1033700004238B40134213D015F0040F10D02368A0
:1033800013F0200F03D1236823F004032360016CA2
:10339000C26B04238B405360C36A03B1984738BDA6
:1033A00002238B4013421AD015F0020F17D0236866
:1033B00013F0200F06D1236823F00A0323600123B2
:1033C00080F82130016CC26B02238B4053600023D4
:1033D00080F82030836A002BE1D09847DFE708238C
:1033E00003FA01F11142DAD015F0080FD7D02368A3
:1033F00023F00E032360026CC16B012303FA02F277
:103400004A60836380F82130002380F82030036B0A
:10341000002BC4D09847C2E7F0B583B0002362E028
:1034200085685E000324B44025EA0405CC68B440F6
:103430002C438460446824EA0C0C4C68C4F30014E8
:103440009C4044EA0C0444605EE0DD08083550F816
:10345000256003F007044FEA840C0F2404FA0CF4EF
:1034600026EA040E0C6904FA0CF444EA0E0440F84F
:10347000254060E0032400E0002404FA0EF42C430D
:103480000CF1020C4F4D45F82C404F4C2568D443AD
:1034900025EA02064F6817F4803F01D042EA05068C
:1034A000494D2E606D6804EA05064F6817F4003F29
:1034B00001D042EA0506444D6E60AD6804EA050697
:1034C0004F6817F4801F01D042EA05063E4DAE60FA
:1034D000ED682C404E6816F4001F01D042EA050446
:1034E000394AD46001330A6832FA03F468D04FF0E5
:1034F000010C0CFA03FC1CEA0202F3D04C6804F045
:103500000304013C012C8BD94C6804F00304032C08
:103510000CD0C4685D004FF0030C0CFA05FC24EAE3
:103520000C0C8C68AC4044EA0C04C4604C6804F099
:103530000304022C89D004684FEA430E4FF0030CB9
:103540000CFA0EFC24EA0C0C4C6804F0030404FA98
:103550000EF444EA0C0404604C6814F4403FC1D0FB
:103560001A4CA56945F00105A561A46904F00104A0
:103570000194019C4FEA930C0CF10205114C54F894
:10358000255003F003044FEA840E0F2404FA0EF4CE
:1035900025EA0405B0F1904F3FF46EAF0C4CA04209
:1035A0000AD004F58064A04208D004F58064A042EB
:1035B0003FF460AF052460E701245EE702245CE786
:1035C00003B0F0BD000001400004014000100240C3
:1035D0000004004810B40468226822F007028B68D7
:1035E000134323F01803CA681343236003680A686F
:1035F0005A6103684A689A615DF8044B704730B5B8
:10360000046801F1010C4FEACC1C54F80C3023F093
:10361000070E936843EA0E0323F01803D5682B4383
:1036200044F80C300368146803EBC113C3F89440EA
:103630000368526803EBC111C1F8982030BD30B463
:1036400004682268D4F8A05322F020024B69134387
:1036500023F400638A691A4322F48063CA691A4317
:1036600022F0C0620B6A134323F000624B6A1343DB
:1036700023F040438A6A43EA820323F000530A6B33
:10368000134325F48035CA6A154323600368C3F8E1
:10369000A05330BC70472DE9F04105684B1CDB019D
:1036A000EC5824F07044EC500668F35806EBC11453
:1036B000D4F8E870D4F8E440D6F8A08323F0200CC6
:1036C000536943EA0C0323F4006C936943EA0C0347
:1036D00023F4806CD36943EA0C0323F0C06C136AB3
:1036E00043EA0C0323F0006C536A43EA0C0323F013
:1036F000704C936A43EA0C0323F40033156BB5F165
:10370000005F34D023F04003D2F834C04CEA030306
:1037100023F48023156D2B4323F0FC73956C2B430E
:1037200027F01F0E976B07F01F0747EA0E0727F0D9
:103730000047D56B2F43BCF1000F03D124F48074F4
:10374000156C2C43D2F844E0BEF5606F12D0BEF584
:10375000F05F0FD024F4F0544EEA0404D2F84CC0C9
:10376000042910D8DFE801F00A262C32380043F48F
:103770000033C7E7BCF1400FF0D1EBE728F4003588
:10378000D26A45EA42084A1CD201B350036803EBEF
:10379000C113C3F8E870036803EBC113C3F8E44036
:1037A000036803EBC111C1F8D4C00368C3F8A08358
:1037B000BDE8F08128F48025D26A45EA8208E2E774
:1037C00028F40025D26A45EAC208DCE728F480150F
:1037D000D26A45EA0218D6E728F40015D26A45EA0B
:1037E0004218D0E770B4066806EBC115D5F8E4407E
:1037F000D5F8B850202A17D80AB900223EE0013A7D
:103800001F2A3AD8DFE802F02C1D392C3939391D2E
:10381000393939393939392C393939393939393925
:10382000393939393939391DB2F5807F18D004D981
:10383000B2F5007F05D0002220E0402A10D0802A77
:103840000CD15A6806EBC116C6F8C42002689E68FF
:1038500002EBC112C2F8C86010220FE000220DE096
:103860005A6806EBC116C6F8BC2002689E6802EBD7
:10387000C112C2F8C060002200E000224FF0FE0C2E
:103880000CFA02FC24EA0C0C1C68944044EA0C0C70
:10389000DC68944044EA0C041E6906FA02FC4CEA17
:1038A000040C5C69944044EA0C0C9C69944044EA22
:1038B0000C04082E06D0036803EBC111C1F8E440E4
:1038C00070BC704715F0022FF5D1DB6903FA02F2E4
:1038D0001443F0E7052933D8DFE801F00B131B236D
:1038E0002B030268D2F8843343F00103C2F8843317
:1038F00070470268D2F8843343F00203C2F884337D
:1039000070470268D2F8843343F00403C2F884336A
:1039100070470268D2F8843343F00803C2F8843356
:1039200070470268D2F8843343F01003C2F884333E
:1039300070470268D2F8843343F02003C2F884331E
:1039400070470000002862D010B582B00446022300
:1039500080F8C1300023C0F8C430C0F8C830C0F8C7
:10396000CC30C0F8D030C0F8D430C0F8D83083683C
:1039700013F0010F12D00268264B9A4225D021681D
:103980000A6822F44042236903F44043134323F4BA
:103990004053626902F4405213430B602046FDF726
:1039A00099FDA36813F0020F08D021680A6822F479
:1039B0004072E36803F4407313430B60012384F8FF
:1039C000C130002384F8C0301CE003F51C439A6921
:1039D00042F000529A619B6903F000530193019BEE
:1039E000CDE7C3EBC30204EB820200219161D161F8
:1039F000116251629162C3EBC30204EB8202116354
:103A00000133DBB2052BECD9002002B010BD012040
:103A1000704700BF0074014090F8C030012B32D0D5
:103A2000012380F8C030022380F8C130B1F1FF3F9C
:103A30001AD00268D2F8CC3343F00203C2F8CC3378
:103A40000268D2F8CC3323F00C031943C2F8CC132C
:103A50000268D2F8CC3343F00103C2F8CC3301231F
:103A600080F8C130002070470268D2F8CC3323F0D0
:103A70000203C2F8CC330268D2F8CC3343F001031E
:103A8000C2F8CC33EBE70220704770B504460D4610
:103A9000FEF79CFA06462368D3F8883313F4803F78
:103AA0000ED1B5F1FF3FF6D0FEF790FA801BA84289
:103AB00001D8002DEFD1072384F8C130032005E0A1
:103AC000012384F8C130002084F8C00070BD10B517
:103AD000044690F8C100C0B202280BD0022384F83B
:103AE000C130052907D02046FFF789FD012384F85E
:103AF000C130002010BD11462046FFF76BFDF5E7F1
:103B000070B5044690F8C100C0B2022828D00E4615
:103B1000154694F8C030012B28D0012384F8C0301A
:103B2000022384F8C13005291BD02046FFF7B3FDDE
:103B30002A68C6EBC60304EB83031A626A685A62FA
:103B4000AA689A62EA68DA622A691A6331462046EC
:103B5000FFF7C0FE012384F8C130002084F8C000C4
:103B600070BD11462046FFF76AFDE1E70220F7E746
:103B7000034690F8C100C0B2022847D093F8C000B5
:103B8000012841D030B54FF0010E83F8C0E002208B
:103B900083F8C100146804F4E0545068C0F30800CE
:103BA0000443906800F4007040EA040C106900F4CB
:103BB000804444EA0C04D06800F4004C4CEA04044D
:103BC0001348556900EA054C4CEA040C906900F072
:103BD000007040EA0C0C106A00F0804040EA0C00D3
:103BE000D26902F0004210431A6802EBC111D1F809
:103BF000B840084A22400243C1F8B82083F8C1E027
:103C0000002083F8C00030BD02207047704700BF1D
:103C10000000FF010020003C844690F8C100C0B2C3
:103C2000022800F0D9809CF8C000012800F0D08064
:103C300030B401208CF8C00002208CF8C1000529A6
:103C400009D0013A072A00F2BC80DFE802F02E43D7
:103C5000BA7ABABABA82013A072A1FD8DFE802F064
:103C6000040F1E141E1E1E19DCF800201B68D361F1
:103C70009CF8C130DBB2072B24D1012028E0DCF80E
:103C800000201B685362F3E7DCF800201B68936296
:103C9000EEE7DCF800201B68D362E9E707238CF825
:103CA000C13000238CF8C030E2E7DCF800201B684C
:103CB00002EBC111C1F89C309CF8C130DBB2072B7C
:103CC00000F0888001238CF8C13000208CF8C000FF
:103CD00030BC7047DCF80020186802EBC112C2F853
:103CE000A4005A6822B3DCF800404A1CD201A05854
:103CF00020F44050A050DCF80040A0585D682843F4
:103D0000A0505A68B2F5005F0AD0B2F5405FD3D137
:103D1000DCF800209B6802EBC112C2F8A830CBE7A8
:103D2000DCF800209B6802EBC111C1F89C30C3E7AE
:103D3000DCF800200131C901535823F4405353509B
:103D4000BAE7DCF800201B6802EBC111C1F8A8300B
:103D5000B2E7DCF80020186802EBC112C2F8AC0030
:103D60005A682AB3DCF800404A1CD201A05820F45B
:103D70004040A050DCF80040A0585D6840EA850053
:103D8000A0505A68B2F5005F0AD0B2F5405F93D1F7
:103D9000DCF800209B6802EBC112C2F8A8308BE768
:103DA000DCF800209B6802EBC111C1F89C3083E76E
:103DB000DCF800200131C901535823F4404353502B
:103DC0007AE707238CF8C13000238CF8C03073E702
:103DD0000220704701207BE7704738B5044690F811
:103DE000C100C0B2022811D094F8C00001280ED042
:103DF000012584F8C050022084F8C1002046FFF756
:103E0000F1FC84F8C150002084F8C00038BD0220C5
:103E1000FCE790F8C030012B15D010B4012280F8D7
:103E2000C020022380F8C1300468D4F894331943C9
:103E3000C4F8941380F8C120002380F8C0301846DD
:103E40005DF8044B70470220704790F8C030012B9A
:103E500013D010B4012280F8C020022380F8C130B2
:103E6000046823681943216080F8C120002380F88A
:103E7000C03018465DF8044B7047022070470000C0
:103E8000002800F0018370B582B00446036813F087
:103E9000010F3BD0B54B5B6803F00C03042B1ED025
:103EA000B24B5B6803F00C03082B13D06368B3F5C7
:103EB000803F68D0002B40F0928003F1804303F5EF
:103EC00004331A6822F480321A601A6822F48022BD
:103ED0001A605DE0A54B5B6813F4803FE6D04FF4B9
:103EE000003393FAA3F3A14B19684FF4003393FA0C
:103EF000A3F3B3FA83F303F01F03012202FA03F3DF
:103F00000B4203D06368002B00F0C082236813F0DB
:103F1000020F00F0C580954B5B6813F00C0F00F0AA
:103F20009C80924B5B6803F00C03082B00F08F80A1
:103F30002369002B00F0F280012292FAA2F3B3FA77
:103F400083F303F1845303F584139B001A60FEF797
:103F50003DF80546022393FAA3F3844B1968022324
:103F600093FAA3F3B3FA83F303F01F03012202FAD7
:103F700003F30B4240F0C380FEF728F8401B0228F1
:103F8000E8D903208BE2794A136843F48033136045
:103F9000764AD36A23F00F03A1680B43D3626368A8
:103FA000002B36D0FEF712F805464FF4003393FA93
:103FB000A3F36E4B19684FF4003393FAA3F3B3FAEB
:103FC00083F303F01F03012202FA03F30B429DD196
:103FD000FDF7FCFF401B6428E7D903205FE2B3F53F
:103FE000A02F09D0614B1A6822F480321A601A6837
:103FF00022F480221A60CBE703F18043A3F53C331F
:104000001A6842F480221A601A6842F480321A60F8
:10401000BEE7FDF7DBFF05464FF4003393FAA3F349
:10402000524B19684FF4003393FAA3F3B3FA83F3B6
:1040300003F01F03012202FA03F30B423FF466AFC1
:10404000FDF7C4FF401B6428E6D9032027E2474B55
:104050005B6813F4803F7FF46BAF022393FAA3F302
:10406000424B1968022393FAA3F3B3FA83F303F0E4
:104070001F03012202FA03F30B4203D02369934288
:1040800040F006823948036823F0F8036169F8229A
:1040900092FAA2F2B2FA82F201FA02F21343036038
:1040A000236813F0080F00F08D80A369002B61D006
:1040B000012191FAA1F2B2FA82F22D4B13449B0036
:1040C0001960FDF783FF0546022393FAA3F293FAE2
:1040D000A3F293FAA3F2254A516A93FAA3F3B3FA2F
:1040E00083F303F01F03012202FA03F30B4269D1A9
:1040F000FDF76CFF401B0228E6D90320CFE11B48E7
:10410000036823F0F8036169F82292FAA2F2B2FA86
:1041100082F201FA02F213430360C1E7012393FA2A
:10412000A3F3B3FA83F303F1845303F584139B00E1
:1041300000221A60FDF74AFF0546022393FAA3F313
:104140000A4B1968022393FAA3F3B3FA83F303F03B
:104150001F03012202FA03F30B42A1D0FDF736FF41
:10416000401B0228E9D9032099E100BF001002405A
:1041700020819010012292FAA2F2B2FA82F2B74B99
:1041800013449B0000221A60FDF720FF054602231E
:1041900093FAA3F293FAA3F293FAA3F2B04A516A04
:1041A00093FAA3F3B3FA83F303F01F03012202FA95
:1041B00003F30B4206D0FDF709FF401B0228E6D9A6
:1041C00003206CE1236813F0040F00F0A980A44BD6
:1041D000DB6913F0805F20D1A14BDA6942F0805295
:1041E000DA61DB6903F080530193019B01259D4B4C
:1041F0001B6813F4807F12D0E368012B23D073BBBC
:1042000003F1804303F504331A6A22F001021A62B3
:104210001A6A22F004021A621AE00025E7E7914ABE
:10422000136843F480731360FDF7D0FE06468D4B90
:104230001B6813F4807FDFD1FDF7C8FE801B642864
:10424000F5D903202BE1864A136A43F00103136278
:10425000E368002B3CD0FDF7B9FE06462BE0052BAA
:1042600009D07F4B1A6A22F001021A621A6A22F000
:1042700004021A62ECE77A4B1A6A42F004021A62EC
:104280001A6A42F001021A62E2E7754B196A0223C8
:1042900093FAA3F3B3FA83F303F01F03012202FAA4
:1042A00003F319423BD1FDF791FE801B41F28833A5
:1042B000984200F2EF80022393FAA3F293FAA3F359
:1042C000002BE2D1022393FAA3F3654B596ADEE790
:1042D000FDF77CFE064615E0614B196A022393FA4E
:1042E000A3F3B3FA83F303F01F03012202FA03F3EB
:1042F000194214D0FDF76AFE801B41F288339842C0
:1043000000F2CA80022393FAA3F293FAA3F3002BDC
:10431000E2D1022393FAA3F3514B596ADEE7B5BB0E
:10432000E369002B00F0BA804D4A526802F00C029B
:10433000082A00F09980022B2FD04FF0807393FA57
:10434000A3F3B3FA83F303F1845303F584139B00BF
:1043500000221A60FDF73AFE04464FF0007393FA0C
:10436000A3F33F4B19684FF0007393FAA3F3B3FA2A
:1043700083F303F01F03012202FA03F319426BD007
:10438000FDF724FE001B0228E7D9032087E0344A0A
:10439000D36923F08053D361C2E74FF0807393FA5F
:1043A000A3F3B3FA83F303F1845303F584139B005F
:1043B00000221A60FDF70AFE05464FF0007393FADB
:1043C000A3F3274B19684FF0007393FAA3F3B3FAE2
:1043D00083F303F01F03012202FA03F3194206D00C
:1043E000FDF7F4FD401B0228E7D9032057E01C49E4
:1043F0004B6823F47413626A206A024313434B60D0
:104400004FF0807393FAA3F3B3FA83F303F1845369
:1044100003F584139B0001221A60FDF7D7FD0446C3
:104420004FF0007393FAA3F30D4B19684FF000732C
:1044300093FAA3F3B3FA83F303F01F03012202FA02
:1044400003F3194206D1FDF7C1FD001B0228E7D98D
:10445000032024E0002022E0002020E020819010B2
:104460000010024000700040012B1AD0104B5B6816
:1044700003F48031226A914215D103F47013626A09
:10448000934212D100200AE001207047012006E08B
:10449000012004E0032002E0032000E0002002B03D
:1044A00070BD0120FBE70120F9E70120F7E700BF1D
:1044B000001002404FF4002393FAA3F3B3FA83F3FE
:1044C00003F1845303F584139B0001221A607047A3
:1044D000184B5A6802F00C03042B26D0082B26D167
:1044E00002F470114FF4701393FAA3F3B3FA83F349
:1044F00021FA03F31049C85C0E4BDB6A03F00F038B
:104500000F2191FAA1F1B1FA81F1CB400B49C95CBD
:1045100012F4803F05D00A4BB3FBF1F303FB00F02C
:104520007047084B03FB00F070470548704706488A
:10453000704700BF00100240C8C80008D8C8000873
:10454000C0FC9B0100093D0000127A00002800F029
:10455000BE8070B50D460446614B1B6803F007032F
:104560008B420BD25E4A136823F007030B431360A0
:10457000136803F007038B4240F0AB80236813F00D
:10458000020F06D0574A536823F0F003A1680B438B
:104590005360236813F0010F5AD06368012B2DD0AC
:1045A000022B40D0022292FAA2F24E4A1068022256
:1045B00092FAA2F2B2FA82F202F01F02012101FA8B
:1045C00002F2104200F0878046494A6822F0030256
:1045D00013434B60FDF7FAFC0646424B5B6803F061
:1045E0000C036268B3EB820F32D0FDF7EFFC801B47
:1045F00041F288339842F0D9032067E04FF400324B
:1046000092FAA2F2374A10684FF4003292FAA2F2FC
:10461000B2FA82F202F01F02012101FA02F2024212
:10462000D2D1012052E04FF0007292FAA2F22D4A4C
:1046300010684FF0007292FAA2F2B2FA82F202F01F
:104640001F02012101FA02F21042BDD101203DE01A
:10465000234B1B6803F00703AB420AD9204A1368B7
:1046600023F007032B431360136803F00703AB42E7
:1046700033D1236813F0040F06D01A4A536823F489
:10468000E063E1680B435360236813F0080F07D021
:10469000144A536823F46053216943EAC103536009
:1046A000FFF716FF0F4B5B6803F0F003F02292FA5E
:1046B000A2F2B2FA82F2D3400B4AD35CD8400B4B41
:1046C00018600B4B1868FDF73DFC002070BD012001
:1046D00070470120FAE70120F8E70120F6E700BF64
:1046E0000020024000100240B0C800080000002076
:1046F00008000020014B1868704700BF0000002030
:1047000008B5FFF7F7FF074B5B6803F4E0634FF46E
:10471000E06292FAA2F2B2FA82F2D340024AD35C89
:10472000D84008BD00100240C0C8000808B5FFF717
:10473000E1FF074B5B6803F460534FF4605292FA59
:10474000A2F2B2FA82F2D340024AD35CD84008BD4A
:1047500000100240C0C800087047000008B5064BB2
:104760009B6813F0800F00D108BDFFF7F5FF024BE7
:1047700080229A72F8E700BF00100240F0B583B0C3
:104780000446036813F4803F44D0624BDB6913F0A6
:10479000805F78D15F4BDA6942F08052DA61DB6981
:1047A00003F080530193019B01255B4B1B6813F4BD
:1047B000807F6AD0574B1B6A13F4407321D0626824
:1047C00002F440729A421CD05248016A21F44076A9
:1047D0004FF4803393FAA3F2B2FA82F24F4F3A4485
:1047E00092004FF0010CC2F800C093FAA3F3B3FAA1
:1047F00083F33B449B0000221A60066211F0010F14
:1048000057D1444A136A23F4407361680B4313621F
:10481000002D74D1236813F0010F06D03D4A136BAD
:1048200023F00303A1680B431363236813F0200FE5
:1048300006D0384A136B23F01003E1680B4313636F
:10484000236813F0800F06D0324AD36A23F4F8733A
:1048500021690B43D362236813F4805F06D02D4A8D
:10486000136B23F4807361690B431363236813F4A0
:10487000804F4BD0274A136B23F48053A1690B431D
:104880001363002043E000258FE7234A136843F4B5
:1048900080731360FDF79AFB06461F4B1B6813F4E9
:1048A000807F87D1FDF792FB801B6428F5D9032018
:1048B0002DE0FDF78BFB064614E0164B196A022328
:1048C00093FAA3F3B3FA83F303F01F03012202FA6E
:1048D00003F30B4295D1FDF779FB801B41F288333E
:1048E000984211D8022393FAA3F293FAA3F3002B70
:1048F000E3D1022393FAA3F3064B596ADFE7D369A6
:1049000023F08053D36185E7032000E0002003B04B
:10491000F0BD00BF00100240007000400081901008
:1049200030B4036A23F001030362036A45688269B5
:1049300022F4803222F073020C68224323F0020337
:104940008C682343194CA0420BD004F5A054A0421C
:1049500007D004F58064A04203D004F58064A0422F
:1049600005D123F00803CC68234323F004030F4C44
:10497000A0420BD004F5A054A04207D004F58064F7
:10498000A04203D004F58064A04207D125F4407C06
:104990004C6944EA0C0C8D6945EA0C05456082615E
:1049A0004A684263036230BC704700BF002C01407C
:1049B00030B4036A23F480730362036A4468C269F3
:1049C00022F4803222F073020D682A4323F400732C
:1049D0008D6843EA0523144DA8421DD0124DA8420C
:1049E0000BD005F5A055A84207D005F58065A84273
:1049F00003D005F58065A84207D124F440544D69E1
:104A000044EA05148D6944EA05144460C2614A68A9
:104A1000C263036230BC704723F40063CD6843EA8D
:104A2000052323F48063D9E7002C014030B4036AE6
:104A300023F480530362026A4468C36923F08073DD
:104A400023F4E6430D6843EA052322F400528D68FF
:104A500042EA05320D4DA8420BD005F5A055A842FB
:104A600007D005F58065A84203D005F58065A8420A
:104A700004D124F480444D6944EA85144460C36140
:104A80004B680364026230BC704700BF002C0140D9
:104A900030B4036A23F480330362036A4468426DCE
:104AA00022F4803222F070020D682A4323F400338E
:104AB0008D6843EA05430D4DA8420BD005F5A0557E
:104AC000A84207D005F58065A84203D005F58065AA
:104AD000A84204D124F480344D6944EA052444609A
:104AE00042654A688265036230BC7047002C014011
:104AF00030B4036A23F480130362026A4468436D8E
:104B000023F0807323F4E0430D6843EA052322F485
:104B100000128D6842EA05520D4DA8420BD005F5F2
:104B2000A055A84207D005F58065A84203D005F539
:104B30008065A84204D124F480244D6944EA852488
:104B4000446043654B68C365026230BC704700BF78
:104B5000002C014010B4036A046A24F001040462CA
:104B6000846924F0F00C4CEA021223F00A030B4390
:104B7000826103625DF8044B704710B4046A24F04C
:104B8000100404628469036A24F4704C4CEA023213
:104B900023F0A00343EA0113826103625DF8044B32
:104BA0007047836823F070030B4343F0070383606F
:104BB0007047000090F83D30DBB2012B2AD1022370
:104BC00080F83D300268D36843F00103D360036886
:104BD000134A934210D0B3F1804F0DD0A2F5943216
:104BE000934209D002F59E32934205D01A6842F0F2
:104BF00001021A600020704799680A4A0A40062A92
:104C00000AD0B2F5803F09D01A6842F001021A605A
:104C10000020704701207047002070470020704737
:104C2000002C014007000100704770477047704733
:104C300010B5044603681A6912F0020F11D0DA6841
:104C400012F0020F0DD06FF002021A6101230377F8
:104C500003689B6913F0030F79D0FFF7E6FF002389
:104C6000237723681A6912F0040F12D0DA6812F061
:104C7000040F0ED06FF004021A6102232377236819
:104C80009B6913F4407F68D02046FFF7CEFF0023D6
:104C9000237723681A6912F0080F12D0DA6812F02D
:104CA000080F0ED06FF008021A61042323772368DF
:104CB000DB6913F0030F57D02046FFF7B6FF002340
:104CC000237723681A6912F0100F12D0DA6812F0F5
:104CD000100F0ED06FF010021A610823237723689B
:104CE000DB6913F4407F46D02046FFF79EFF002388
:104CF000237723681A6912F0010F03D0DA6812F0E3
:104D0000010F3FD123681A6912F0800F03D0DA68CF
:104D100012F0800F3DD123681A6912F4807F03D00E
:104D2000DA6812F0800F3BD123681A6912F0400F45
:104D300003D0DA6812F0400F39D123681A6912F0F3
:104D4000200F03D0DA6812F0200F37D110BDFFF723
:104D50006BFF2046FFF76AFF81E72046FFF764FFFD
:104D60002046FFF763FF92E72046FFF75DFF2046EE
:104D7000FFF75CFFA3E72046FFF756FF2046FFF74B
:104D800055FFB4E76FF001021A61204601F0E0F828
:104D9000B8E76FF080021A61204600F0DCFBBAE74A
:104DA0006FF480721A61204600F0D6FBBCE76FF00A
:104DB00040021A612046FFF73AFFBEE76FF020027B
:104DC0001A61204600F0C6FBC0E700000368224AD3
:104DD000904206D0B0F1804F03D0A2F594329042B9
:104DE00003D123F070034A6813431B4A904212D048
:104DF000B0F1804F0FD0A2F5943290420BD002F563
:104E00009E32904207D002F58062904203D002F5B4
:104E10008062904203D123F44073CA68134323F0A5
:104E200080034A69134303608B68C3620B68836223
:104E3000094B98420BD003F5A053984207D003F5D5
:104E40008063984203D003F58063984201D10B69D7
:104E50000363012343617047002C014060B310B528
:104E6000044690F83D3013B3022384F83D302146C8
:104E700051F8040BFFF7AAFF012384F8483084F8A7
:104E80003E3084F83F3084F8403084F8413084F874
:104E9000423084F8433084F8443084F8453084F854
:104EA000463084F8473084F83D30002010BD80F84B
:104EB0003C30FCF7BBFDD7E70120704760B310B56D
:104EC000044690F83D3013B3022384F83D30214668
:104ED00051F8040BFFF77AFF012384F8483084F877
:104EE0003E3084F83F3084F8403084F8413084F814
:104EF000423084F8433084F8443084F8453084F8F4
:104F0000463084F8473084F83D30002010BD80F8EA
:104F10003C30FCF7BBFDD7E70120704730B4036A93
:104F200023F010030362036A4468826922F08072EE
:104F300022F4E6420D6842EA052223F020038D6840
:104F400043EA0513144DA8421DD0134DA8420BD0BF
:104F500005F5A055A84207D005F58065A84203D005
:104F600005F58065A84207D124F440644D6944EA00
:104F700085048D6944EA8504446082614A688263DD
:104F8000036230BC704723F08003CD6843EA051309
:104F900023F04003D9E700BF002C014038B590F85A
:104FA0003C30012B00F0958004460D46012380F82B
:104FB0003C30142A00F28880DFE802F00B868686F7
:104FC0001F86868634868686488686865D868686A1
:104FD00071000068FFF7A4FC2268936943F008039E
:104FE00093612268936923F00403936122689369B3
:104FF00029690B439361002067E00068FFF78EFF8B
:105000002268936943F4006393612268936923F4EF
:105010008063936122689369296943EA012393615C
:10502000002052E00068FFF7C3FC2268D36943F018
:105030000803D3612268D36923F00403D361226893
:10504000D36929690B43D36100203EE00068FFF774
:10505000EDFC2268D36943F40063D3612268D3690D
:1050600023F48063D3612268D369296943EA012369
:10507000D361002029E00068FFF70AFD2268536D24
:1050800043F0080353652268536D23F0040353650E
:105090002268536D29690B435365002015E00068B1
:1050A000FFF726FD2268536D43F4006353652268C1
:1050B000536D23F4806353652268536D296943EA75
:1050C00001235365002000E00120002384F83C30D8
:1050D00038BD0220FCE710B4846824F47F4C42EA17
:1050E00003220A4342EA0C0282605DF8044B7047D7
:1050F00090F83C30012B76D010B50446012380F89F
:105100003C30022380F83D3002689068374B034002
:1051100093600B68602B4CD029D8402B54D00CD90D
:10512000502B22D1CA6849682068FFF713FD50212F
:105130002068FFF736FD002005E0202B0DD009D9AF
:10514000302B0AD00120012384F83D30002384F85D
:105150003C3010BD0BB1102B05D119462068FFF76C
:1051600020FD0020EFE70120EDE70120EBE7B3F59C
:10517000805F34D0B3F5005F0CD1CB684A68896892
:105180002068FFF7A8FF2268936843F48043936088
:105190000020D8E7702B24D1CB684A688968206842
:1051A000FFF799FF2268936843F07703936000202C
:1051B000C9E7CA6849682068FFF7DFFC60212068FA
:1051C000FFF7EFFC0020BEE7CA6849682068FFF7D8
:1051D000C1FC40212068FFF7E4FC0020B3E7002079
:1051E000B1E70120AFE70220704700BF8800FEFF53
:1051F00001F01F01012303FA01FC036A23EA0C03F7
:105200000362036A02FA01F10B4303627047000074
:1052100010B50446084600293BD194F83E30DBB275
:10522000013B18BF0123002B40F0888000285BD190
:10523000022384F83E30012201462068FFF7D8FFA0
:105240002368414A93420BD002F5A052934207D003
:1052500002F58062934203D002F58062934203D14B
:105260005A6C42F400425A642368374A934257D03A
:10527000B3F1804F54D0A2F59432934250D002F54E
:105280009E3293424CD01A6842F001021A6000200C
:1052900055E004290CD0082911D00C2916D010296A
:1052A0001BD094F84330DBB2013B18BF0123BAE7AF
:1052B00094F83F30DBB2013B18BF0123B3E794F809
:1052C0004030DBB2013B18BF0123ACE794F841301A
:1052D000DBB2013B18BF0123A5E794F84230DBB2F3
:1052E000013B18BF01239EE7042809D008280BD0F2
:1052F0000C280DD010280FD0022384F843309AE7F1
:10530000022384F83F3096E7022384F8403092E786
:10531000022384F841308EE7022384F842308AE782
:1053200099680A4A0A40062A0AD0B2F5803F09D095
:105330001A6842F001021A60002000E0012010BD4E
:105340000020FCE70020FAE7002C014007000100E4
:1053500001F01F01042303FA01FC036A23EA0C0392
:105360000362036A02FA01F10B4303627047000013
:1053700010B50446084659BB94F84430DBB2013BF3
:1053800018BF0123002B5AD100283AD1022384F8F8
:105390004430042201462068FFF7DAFF2268536C8C
:1053A00043F4004353642368284A934239D0B3F14D
:1053B000804F36D0A2F59432934232D002F59E321D
:1053C00093422ED01A6842F001021A60002037E0A2
:1053D000042908D008290DD094F84730DBB2013BEE
:1053E00018BF0123CEE794F84530DBB2013B18BF6C
:1053F0000123C7E794F84630DBB2013B18BF012315
:10540000C0E7042805D0082807D0022384F84730D5
:10541000BFE7022384F84530BBE7022384F8463017
:10542000B7E799680A4A0A40062A0AD0B2F5803FCF
:1054300009D01A6842F001021A60002000E0012041
:1054400010BD0020FCE70020FAE700BF002C01405F
:105450000700010090F83C30012B33D030B4012319
:1054600080F83C30022380F83D300268536894682D
:10547000154DAA4221D023F070030D682B435360D1
:105480000368114A93420AD0B3F1804F07D0A2F5C6
:105490009432934203D002F59E32934204D124F019
:1054A00080048A6814439C60012380F83D30002307
:1054B00080F83C30184630BC704723F470034D68C8
:1054C0002B43D8E702207047002C014090F83C3075
:1054D000012B3BD010B4012380F83C30CB6823F47F
:1054E00040738A68134323F480634A68134323F4A8
:1054F00000630A68134323F480530A69134323F4B7
:1055000000534A69134323F480438A6A134323F404
:1055100070238A6943EA024302680D4CA24207D015
:105520005364002380F83C3018465DF8044B704704
:1055300023F470034C6A43EA045323F08073CC696C
:10554000234323F00073096A0B43E9E70220704705
:10555000002C0140704770477047000010B50446AA
:1055600083680269134342691343C26913430168A4
:1055700008684E4A024013430B602268536823F4C4
:105580004053E1680B435360A269236A1A432168C0
:105590008B6823F4306313438B602368444A93423F
:1055A00014D0444A934227D002F5806293421FD020
:1055B0001023E069B0F5004F20D0082B70D8DFE849
:1055C00003F04A60486F636F6F6F66003A4B1B6B66
:1055D00003F00303032B09D8DFE803F00204060CF1
:1055E0000023E6E70423E4E70823E2E71023E0E7EB
:1055F0000023DEE70223DCE70023DAE7082B49D8A3
:10560000DFE803F0051F2548224848480900FFF756
:1056100077F8002840D06268530803EB4000B0FBE5
:10562000F2F080B2A0F110024FF6EF739A4235D833
:1056300020F00F03C0F3420018432368D860002015
:105640001BE0FFF773F8E4E7FEF742FFE1E71B48D2
:10565000E1E71A4802E0FFF753F818B3636800EB7C
:105660005300B0FBF3F080B2A0F110024FF6EF73DD
:105670009A4219D82368D860002000236366A36685
:1056800010BDFFF753F8E8E7FEF722FFE5E74FF418
:105690000040E3E70120F0E70020EEE70120ECE71F
:1056A0000120EAE70020E8E70120E6E7F369FFEFE1
:1056B00000380140004400400010024000127A000F
:1056C000436A13F0010F06D00268536823F40033D5
:1056D000816A0B435360436A13F0020F06D00268DD
:1056E000536823F48033C16A0B435360436A13F059
:1056F000040F06D00268536823F48023016B0B4328
:105700005360436A13F0080F06D00268536823F40D
:105710000043416B0B435360436A13F0100F06D0F4
:105720000268936823F48053816B0B439360436A50
:1057300013F0200F06D00268936823F40053C16B66
:105740000B439360436A13F0400F0AD0026853681A
:1057500023F48013016C0B435360036CB3F5801F7B
:105760000BD0436A13F0800F06D00268536823F40D
:105770000023816C0B43536070470268536823F425
:10578000C003416C0B435360EBE72DE9F84305463A
:105790000F4616469946DDF820802C68E46937EA02
:1057A00004030CBF4FF0010C4FF0000CB44553D173
:1057B000B8F1FF3FF1D0FCF709FCA0EB0900404530
:1057C0002DD8B8F1000F2AD02B681A6812F0040FF8
:1057D000E3D0DA6912F4006FDFD04FF400621A628E
:1057E0002A6852E8003F23F4D07342E800310029D0
:1057F000F6D12A6802F1080353E8003F23F00103C1
:10580000083242E800310029F3D12023AB67EB676F
:10581000C5F88030002385F8743003201DE02A6825
:1058200052E8003F23F4D07342E800310029F6D15A
:105830002A6802F1080353E8003F23F0010308320D
:1058400042E800310029F3D12023AB67EB67002346
:1058500085F87430032000E00020BDE8F8832DE9CE
:10586000F04182B01E46836F202B56D104460D4670
:105870009046002955D0002A55D090F87430012B5D
:1058800053D0012380F874300023C0F880302123E6
:105890008367FCF79BFB0746A4F85080A4F852806E
:1058A000A368B3F5805F05D04FF00008002384F8AB
:1058B000743014E0236913B14FF00008F6E7A846EE
:1058C0000025F3E738F8023B2268C3F30803138589
:1058D000B4F8522092B2013A92B2A4F85220B4F82D
:1058E00052309BB273B100963B4600228021204685
:1058F000FFF74BFFD8B9002DE4D0236815F8012B32
:105900001A85E5E700963B46002240212046FFF736
:105910003CFF70B92023A36700E0022002B0BDE87D
:10592000F0810120FAE70120F8E70220F6E70320E2
:10593000F4E70320F2E730B583B004460023C0F853
:105940008030FCF743FB05462268126812F0080F0E
:105950000DD123681B6813F0040F16D12023A36711
:10596000E3670020206684F8740003B030BD6FF058
:105970007E430093034600224FF400112046FFF7B8
:1059800004FF0028E5D00320EFE76FF07E4300938B
:105990002B4600224FF480012046FFF7F6FE002838
:1059A000DCD00320E1E768B310B50446836F03B38E
:1059B0002423A3672268136823F0010313602046A1
:1059C000FFF7CCFD012813D0636ABBB92268536886
:1059D00023F4904353602268936823F02A03936072
:1059E0002268136843F0010313602046FFF7A3FF0A
:1059F00010BD80F87430FCF70DFAD9E72046FFF7A8
:105A00005FFEE3E70120704708B5C0ED030A80EDB3
:105A1000020AC0ED051A80ED041A31EE401A71EE4B
:105A2000E01A81EE217A60EE870A30EE600AD0ED4E
:105A3000077A67EE877AC0ED077A80ED060A203094
:105A400000F01AF808BD10B5044689B20180436819
:105A5000C91AC164203000F01DF8D4ED147AB8EEF4
:105A6000E70AD4ED077A20EE270AD4ED067A30EE65
:105A7000270A84ED150A10BD002380F82830C36280
:105A8000036304E0002240F823200133DBB2092B3A
:105A9000F8D9704790F828C0C36A40F82C3000232A
:105AA0001A4604E050F823100A440133DBB2092BF4
:105AB000F8D9094B83FB0213D217C2EBA30202638E
:105AC0000CF10103DBB280F828300A2B00D07047BC
:105AD000002380F82830FAE767666666C8B101706F
:105AE00080ED010AC0ED020A80ED031AC0ED051A2F
:105AF00080ED072AC0ED062A80ED083A00224264B4
:105B00000264C263C2628263426302630265C2646A
